:020000040100F9
:10000000F00B0030D51B00019D720001C11B0001E7
:10001000C11B0001C11B0001C11B0001C11B00016C
:10002000000000000000000000000000DD1C0001D6
:10003000C11B000100000000711C00019927000194
:10004000211F0001211F0001211F0001211F0001AC
:10005000211F0001211F0001211F0001211F00019C
:10006000211F0001211F0001211F0001211F00018C
:10007000211F0001211F0001211F0001211F00017C
:10008000211F0001211F0001211F0001211F00016C
:10009000211F0001211F0001211F0001211F00015C
:1000A000211F0001211F0001211F0001211F00014C
:1000B000211F0001211F0001211F0001211F00013C
:1000C000211F0001211F0001211F0001211F00012C
:1000D000211F0001211F0001211F0001211F00011C
:1000E000211F0001211F0001211F0001211F00010C
:1000F000211F0001211F0001211F0001211F0001FC
:10010000211F0001211F0001211F0001211F0001EB
:08011000211F0001211F000165
:1001180053B94AB9002908BF00281CBF4FF0FF3166
:100128004FF0FF3000F00CB8ADF1080C6DE904CECB
:1001380000F010F8DDF804E0DDE9022304B07047B0
:10014800704700BF034613F8012B002AFBD1181A89
:10015800013870472DE9F04786468C460846089EC8
:10016800154674461946002B40F0C1808542B2FA04
:1001780082F245D94AB1C2F1200300FA02FC954047
:1001880094402EFA03F343EA0C0C4FEA154EA8B23A
:10019800230CBCFBFEF80EFB18CC08FB00F943EA65
:1001A8000C43994528D9EB1808F1FF3704D2994533
:1001B80002D9A8F102072B44A3EB0903A4B2B3FBAD
:1001C800FEFC0EFB1C330CFB00F044EA0344A04287
:1001D80014D92C190CF1FF3304D2A04202D9ACF186
:1001E80002032C44241A43EA07401EB1D4400023DA
:1001F80034607360BDE8F0874746DDE76346F1E7A2
:1002080092BB431B01214FEA154EAFB2200CB3FB42
:10021800FEFC0EFB1C330CFB07F840EA0343984531
:1002280061D9EB180CF1FF3004D2984502D9ACF132
:1002380002002B44A3EB0803A4B2B3FBFEFC0EFBA5
:100248001C330CFB07F744EA0344A7424DD92C1989
:100258000CF1FF3304D2A74202D9ACF102032C44BB
:10026800E41B43EA0040C0E7C2F1200395409440F4
:1002780020FA03F12EFA03F34FEA154E9040AFB27D
:100288000343B1FBFEFC0EFB1C10190C0CFB07F81A
:1002980041EA0041884522D969180CF1FF3004D29F
:1002A800884502D9ACF102002944A1EB08019BB2B0
:1002B800B1FBFEFC0EFB1C110CFB07F743EA0143E4
:1002C8009F420ED9EB180CF1FF3104D29F4202D99C
:1002D800ACF102012B44DB1B41EA004193E7604685
:1002E800E3E76146F7E76046A4E76346B8E7834279
:1002F80006D916B9002108467CE7C6E900E0F9E707
:10030800B3FA83F78FB9834201D3724508D8BEEB9D
:10031800020460EB030301209C461EB9002169E733
:100328003846FAE7C6E9004CF8E7C7F1200CBB40AD
:100338000EFA07F522FA0CF42EFA0CF1BA401C4317
:1003480020FA0CF3B8404FEA144901431FFA84FE1F
:10035800B3FBF9F809FB18300B0C08FB0EFA43EA5B
:1003680000439A4540D9E31808F1FF3004D29A4572
:1003780002D9A8F102002344A3EB0A0389B2B3FB14
:10038800F9F809FB183308FB0EFE41EA03418E45D4
:100398002CD9611808F1FF3304D28E4502D9A8F18F
:1003A8000203214443EA0040A1EB0E01A0FB02989E
:1003B8004145CE46434602D306D14D4504D20138C5
:1003C800B9EB020E68EB0403002EA7D0B5EB0E02C2
:1003D80061EB030101FA0CFC22FA07F3F9404CEA3D
:1003E8000303C6E9003199E74046C5E74346D9E724
:1003F80080B582B000AF78600B490C4809F03CFE2C
:10040800012304220321094809F046FE084B1B6B0F
:10041800013B1946064809F0FAFE04F0D5FF00BF73
:100428000837BD4680BD00BFB0A8000134040030C5
:100438000C05003080B582B000AF78600B490C48DD
:1004480009F01AFE012302220321094809F024FEBB
:10045800084B1B6B01331946064809F0D8FE04F017
:10046800B3FF00BF0837BD4680BD00BFC4A8000168
:10047800340400300C05003080B582B000AF7860DD
:100488000B46FB7014210A2004F068FDFB78002B52
:1004980001D0144B00E0144B1946144809F025FC10
:1004A8007B68DB6B002B0CD01149124809F0E4FD86
:1004B8000821114804F02CFD1049114805F012FAE2
:1004C80007E010490B4809F0D7FD08210A4804F055
:1004D8001FFD08210C4804F01BFD00BF0837BD466E
:1004E80080BD00BFD8A80001E0A80001E4A8000171
:1004F800FCA80001A004003010A900011CA90001FB
:1005080044A9000158A900016CA9000180B582B076
:1005180000AF786039601221042004F01FFD064AFC
:100528003B6852F823301946044809F0DEFB00BF47
:100538000837BD4680BD00BF0000003078A9000123
:1005480080B594B006AF012387F82F3004F0F2FC91
:10055800674B3B63386B05F063FD034683F001038B
:10056800DBB2002B40F0BE80386B04F0FFFD614821
:1005780005F09CFD034683F00103DBB2002B01D09C
:100588000023B1E04FF4D0115A4805F0E9FD786333
:100598007B6B002B01DA0023A6E00621564804F005
:1005A800B7FC0821554804F0B3FC04F0CDFC544BCB
:1005B80000931E2332220121012004F04FFD012364
:1005C800029304230193072300934E4B04220F2127
:1005D8004D4804F0C3FF012302930423019303232E
:1005E80000934A4B18220E21494804F0B7FF494BA3
:1005F8000293494B019303230093142306220421F9
:10060800464804F07BFF464B0293464B0193032375
:100618000093142306221A21434804F06FFF002395
:1006280004930023039306230293404B019305236D
:10063800009324230A2203213D4804F0CDFF002320
:1006480005930023049302230393642302931E2338
:1006580001930123009326230F220421354805F036
:1006680083F8354B019300230093344B1B220C2154
:10067800334805F0F3F8304B019300230093314BD6
:100688001C220C21304805F0E9F8304B0293012375
:100698000193032300932E4B132204212D4805F0C8
:1006A800A1F904F091FE07F11803184604F044FE7E
:1006B8000346002B12D03B7E022B05D0022B06DC12
:1006C800002B03D0012B02E000BF00E000BF07F1C0
:1006D8001803184604F09CFE04F076FE0A2005F084
:1006E800ABFCE0E700BF00BF18463837BD4680BD09
:1006F800FCA5000194AC000158AA000160AA000101
:1007080088A900016CAA00013404003074AA000111
:10071800A0040030F903000190AA0001F0020030A3
:100728003D0400019CAA00015C030030A8AA000156
:10073800C80300300C0500308104000110AB000133
:100748007805003024AB0001E405003015050001F0
:10075800000000305006003080B483B000AF7860ED
:10076800034A7B68136000BF0C37BD4680BC7047E6
:100778000C00003080B582B000AF78603960044B5F
:100788001B6878689847034618460837BD4680BDF9
:100798000C00003080B58CB000AF7860396005F08F
:1007A8008FFF0346002B1BD007F11C0300221A60A1
:1007B8005A609A60DA601A610223BB77134B3B6276
:1007C80007F11C033A687968184605F0A1F9FB6A35
:1007D800002B17D007F11C03184605F08FFF11E016
:1007E80007F10C0300221A605A609A60DA6002234B
:1007F800BB73074B3B6107F10C033A6879681846ED
:1008080005F086F93037BD4680BD00BF2D67000171
:100818007D07000180B584B000AF7860396000239F
:10082800FB600AE0094B1B687968FA680A44127889
:1008380010469847FB680133FB60FA683B689A42A8
:10084800F0D300BF00BF1037BD4680BD0C0000309C
:1008580080B500AF09F098FE0346024A9B58184637
:1008680080BD00BF0800000080B584B000AFF8600C
:10087800B9607A603B6005F087FF024609F084FEA4
:10088800034606495A50FB683A687968B868984739
:10089800FFF7DEFF0346184605F07DFF080000005D
:1008A80080B483B000AF78607B68044A1A60012383
:1008B80018460C37BD4680BC704700BFD4AC000159
:1008C80080B485B000AF4FF0A0439B6803F4606329
:1008D800BB60BB68B3F5606F34D0BB68B3F5606FBD
:1008E80033D8BB68B3F5406F28D0BB68B3F5406F09
:1008F8002BD8BB68B3F5206F1CD0BB68B3F5206F4D
:1009080023D8BB68B3F5C06F11D0BB68B3F5C06F0F
:100918001BD8BB68002B04D0BB68B3F5806F03D02D
:1009280013E0144BFB6013E0134BFB6010E0134B18
:10093800FB600DE04FF4E103FB6009E04FF4004376
:10094800FB6005E00E4BFB6002E00A4BFB6000BF5A
:100958004FF0A0439B689B0903F007037B60FA688C
:100968007B6822FA03F3074A136000BF1437BD46B9
:1009780080BC704780F0FA020048E801B8FF010027
:10098800C0687804100000302DE9B04386B000AF8D
:1009980078603649896879613449096821F4803179
:1009A800334801603149096801F00101002911D17A
:1009B8002E496FF07F4048602C496FF07F40886077
:1009C8002A49052008606FF07F4179614FF08071F6
:1009D800396103E0254949680131396179680020A6
:1009E800884681462349096800200A46034602FBD7
:1009F80009F008FB03F10144A8FB02454B191D4609
:100A08001D4A4FF0000320462946FFF781FB0246A6
:100A18000B461346FB60FA683B69B2FBF3F31A46D0
:100A2800164B1A60FB683A69B3FBF2F2396901FBAD
:100A380002F29B1ABB60BA687B699A420CD30F4BCF
:100A48001B6801330D4A13607A69BB68D21A3B6987
:100A580013440B4A136004E07A69BB68D31A084A46
:100A6800136000BF1837BD46BDE8B08310E000E052
:100A7800C00600301000003040420F001400003063
:100A8800BC06003080B582B000AF78603960104A8B
:100A98003B6813600F4B1B68002B02DD6FF00503EA
:100AA80012E07B68002B01D100230DE07868FFF786
:100AB8006BFF084B1B68002B05DD074B1B68064ABC
:100AC80043F002031360002318460837BD4680BD73
:100AD800C40600301400003010E000E080B500AF1C
:100AE800164B1B68002B0CDA154B1B68002B06D025
:100AF800134B1B6800209847114B00221A600023F3
:100B08001AE00E4B1B68002B14D10E4B9A680E4B43
:100B18001B689A420ED800F019F8094B1B68002B85
:100B280006D0074B1B6800209847054B00221A6027
:100B3800002301E06FF00503184680BD1400003063
:100B4800C406003010E000E0BC06003080B500AFFD
:100B58000A4B1B68002B07D0084B1B686FF00F006F
:100B68009847064B00221A60054A064B1B6813601B
:100B7800054B4FF0FF321A6000BF80BDC40600303D
:100B880010E000E0C00600301400003080B582B0EC
:100B980000AF0346FB71FB79072B5ED801A252F820
:100BA80023F000BFCD0B0001630C00011B0C0001FA
:100BB8000F0C0001630C0001E90B0001470C000158
:100BC800050C00014FF0A0439B684FF0A04243F48E
:100BD800802393604FF0806005F055FE03463EE0A9
:100BE8004FF0A0439B684FF0A04243F480139360FA
:100BF8004FF0805005F047FE034630E01A4806F0F3
:100C080077F903462BE04FF0005005F03CFE034611
:100C180025E04FF0A0435B6F4FF0A04243F0110373
:100C280053674FF0A0439B684FF0A04243F48033D2
:100C380093604FF0807005F026FE03460FE04FF0FA
:100C4800A0439B684FF0A04243F4003393604FF0F9
:100C5800007005F018FE034601E06FF00203184625
:100C68000837BD4680BD00BFE4AC000180B584B044
:100C780000AF0346FB710023FB604FF0A0439B6865
:100C880003F46063BB60FB79072B00F2BE8001A20E
:100C980052F823F0BD0C0001130E00016D0D000188
:100CA800B50D0001130E0001010D0001CB0D00016F
:100CB800490D00014FF0A0439B6803F48023002BEB
:100CC80011D14FF0A0439B684FF0A04243F480231A
:100CD80093604FF0806005F0D6FD0346002B02D0EC
:100CE8006FF00903ADE04FF0A0439B684FF0A042BE
:100CF80023F4606393608BE04FF0A0439B6803F498
:100D08008013002B11D14FF0A0439B684FF0A042F5
:100D180043F4801393604FF0805005F0B4FD034610
:100D2800002B02D06FF009038BE04FF0A0439B68C3
:100D380023F460634FF0A04243F42063936067E0BC
:100D48000720FFF723FFF860FB68002B01D0FB6842
:100D580077E04FF0A0439B684FF0A04243F46063F4
:100D6800936055E04FF0A0439B6803F48033002B59
:100D780011D14FF0A0439B684FF0A04243F4803359
:100D880093604FF0807005F07EFD0346002B02D083
:100D98006FF0090355E04FF0A0439B6823F46063AC
:100DA8004FF0A04243F48063936031E04FF0A043DA
:100DB8009B6823F460634FF0A04243F4C0639360E0
:100DC80026E04FF0A0439B6803F40033002B11D1B9
:100DD8004FF0A0439B684FF0A04243F40033936068
:100DE8004FF0007005F04FFD0346002B02D06FF066
:100DF800090326E04FF0A0439B6823F460634FF09B
:100E0800A04243F44063936002E06FF0020318E0ED
:100E18004FF4005005F037FD0346002B0ED04FF07D
:100E2800A0439B6823F46062BB6803F460634FF0DF
:100E3800A04113438B606FF0090302E0FFF740FD08
:100E4800002318461037BD4680BD00BF80B500AFEF
:100E5800024805F0A4FD00BF80BD00BF00A00250FD
:100E680080B582B000AF78607B680F4A934208D0A3
:100E78007B680E4A934201D1002303E04FF0FF3311
:100E880000E00023002B08D10B2005F048FD0920C5
:100E980005F0A5FC00BF002301E06FF0020318462F
:100EA8000837BD4680BD00BF002004400020045024
:100EB80080B586B000AFF860B9601346FB710023B7
:100EC8007B61FB681C4A934206D0FB681B4A93422D
:100ED80002D06FF002032BE0FB6805225A61FB7910
:100EE800002B02D0012B05D008E0154B1B685B08CE
:100EF8007B6106E04FF4E1037B6102E06FF00203DF
:100F080016E0BA687969F86805F06DFE38613B69E2
:100F1800002B0CDDFB681B6843F40042FB681A6079
:100F280000BFFB681B6803F40023002BF9D03B6962
:100F380018461837BD4680BD0020044000200450E4
:100F48001000003080B584B000AF78600B46FB70AD
:100F58000023FB737B68114A934206D07B68104AD2
:100F6800934202D06FF0020313E0FB78002B02D00B
:100F7800012B05D009E00021786800F085F807E02A
:100F88000121786800F080F802E06FF0020300E0C9
:100F9800FB7B18461037BD4680BD00BF00200440CB
:100FA8000020045080B483B000AF78600B46FB701B
:100FB800FB78042B5FD801A252F823F0D90F000167
:100FC800E70F00010D100001331000015910000156
:100FD8007B681B6823F010027B681A604EE07B6810
:100FE8001B6843F010027B681A607B681B6823F05B
:100FF80020027B681A607B681B6823F040027B68CC
:101008001A603BE07B681B6843F010027B681A603B
:101018007B681B6823F020027B681A607B681B686A
:1010280043F040027B681A6028E07B681B6843F045
:1010380010027B681A607B681B6843F020027B689B
:101048001A607B681B6823F040027B681A6015E011
:101058007B681B6843F010027B681A607B681B681A
:1010680043F020027B681A607B681B6843F04002EB
:101078007B681A6002E06FF0020300E00023184664
:101088000C37BD4680BC704780B485B000AF78602F
:101098000B46FB707B68234A934208D07B68224A40
:1010A800934201D1002303E04FF0FF3300E0002317
:1010B8001E4AD35C002B01D000232EE07B681B68FE
:1010C80003F40043002B14BF01230023FB73FB7BB5
:1010D800002B05D07B681B6823F400427B681A60EC
:1010E8007B681B6823F44032FB781B0403F440330D
:1010F8001A437B681A60FB7B002B0DD07B681B684A
:1011080043F400427B681A6000E000BF7B681B68FC
:1011180003F40023002BF8D0002318461437BD46EB
:1011280080BC70470020044000200450C8060030EE
:1011380080B485B000AF7860134B1B78002B1CD1AE
:101148000023FB6013E00023BB600AE00F49FB6843
:101158005A01BB681344002241F82320BB680133BD
:10116800BB60BB681F2BF1DDFB680133FB60FB68CC
:10117800002BE8DD044B01221A70002318461437AF
:10118800BD4680BC704700BFE8070030CC06003081
:1011980080B400AF024B1B781846BD4680BC704730
:1011A800E907003080B485B000AF78600B46FB706B
:1011B8007B681B68FB60FB78042B7CD801A252F883
:1011C80023F000BF11120001E111000173120001A8
:1011D80041120001A1120001FB68DA6A7B685B68B2
:1011E8001A43FB68DA62FB68DA6D7B685B68DB438D
:1011F8001A40FB68DA65FB689A6A7B685B68DB43C0
:101208001A40FB689A6259E0FB68DA6A7B685B6897
:10121800DB431A40FB68DA62FB68DA6D7B685B685F
:10122800DB431A40FB68DA65FB689A6A7B685B688F
:101238001A43FB689A6241E0FB68DA6A7B685B687C
:10124800DB431A40FB68DA62FB68DA6D7B685B682F
:10125800DB431A40FB68DA65FB689A6A7B685B685F
:10126800DB431A40FB689A6228E0FB68DA6A7B680D
:101278005B681A43FB68DA62FB68DA6D7B685B6857
:10128800DB431A40FB68DA65FB689A6A7B685B682F
:101298001A43FB689A6211E0FB68DA6D7B685B6849
:1012A8001A43FB68DA65FB689A6A7B685B681A43CD
:1012B800FB689A6202E06FF0020300E00023184620
:1012C8001437BD4680BC704780B584B000AFF86065
:1012D8000B467A60FB7205F016FF0346012B01D11D
:1012E800002379E0FB681A6B7B681A43FB681A6372
:1012F800FB687A685A60FB7A052B69D801A252F814
:1013080023F000BF251300014713000169130001F2
:1013180085130001A1130001BD130001FB687A6861
:101328005A61FB687A685A60FB687A681A67FB68D2
:101338007A68DA67FB687A68C3F888204BE0FB684C
:101348007A681A61FB687A685A60FB687A681A6773
:10135800FB687A68DA67FB687A68C3F888203AE03D
:10136800FB687A68C3F88820FB687A68DA67FB68E4
:101378007A681A67FB687A689A602CE0FB687A6872
:10138800C3F88820FB687A68DA67FB687A68DA66E7
:10139800FB687A689A601EE0FB687A68C3F8882060
:1013A800FB687A689A67FB687A681A67FB687A68E4
:1013B8009A6010E0FB687A68C3F88820FB687A684E
:1013C8009A67FB687A68DA66FB687A689A6002E06E
:1013D8006FF0020300E0002318461037BD4680BDB9
:1013E80080B584B000AFF8600B467A60FB7205F0F8
:1013F8008AFE0346012B01D1002368E0FB7A032B08
:1014080052D801A252F823F0211400014714000118
:101418006B1400018F140001FB68D3F8B0207B68BF
:10142800DB431A40FB68C3F8B020FB68D3F8B4204C
:101438007B68DB431A40FB68C3F8B42046E0FB68CE
:10144800D3F8B0207B681A43FB68C3F8B020FB6868
:10145800D3F8B4207B68DB431A40FB68C3F8B42098
:1014680034E0FB68D3F8B0207B68DB431A40FB68A4
:10147800C3F8B020FB68D3F8B4207B681A43FB6834
:10148800C3F8B42022E0FB68D3F8B0207B681A4385
:10149800FB68C3F8B020FB68D3F8B4207B681A4314
:1014A800FB68C3F8B42011E0FB68D3F8B0207B6870
:1014B800DB431A40FB68C3F8B020FB68D3F8B420BC
:1014C8007B68DB431A40FB68C3F8B4200023184646
:1014D8001037BD4680BD00BF30BFFFF7FDBF00BF5E
:1014E80080B400AF034A044B13441846BD4680BC81
:1014F800704700BF000000000400000080B582B003
:1015080000AF7860094B1A460949786808F08EFFE1
:10151800064A7B6813447B60064B1A4600217868AC
:1015280008F091FF00BF0837BD4680BD00000000ED
:101538008DA800010400000080B400AF074BDA69F1
:10154800064B9B689A4205D0054B5B68044A43F0FA
:101558008053536000BFBD4680BC704750000030C8
:1015680000ED00E080B588B000AFF860B9607A603F
:101578001023FB616FF01503BB6100BF344B9B6AFE
:1015880003F01003002B02D01123FB6100BF304B86
:101598009B6A03F00803002B02D01223FB6100BFF3
:1015A8002B4B9B6A03F00203002B17D01323FB611C
:1015B80000BF274B5B6B7B61254B9B6A03F0800365
:1015C800002B0BD07B69BB6100BFBB68002B05D02B
:1015D8001F4B9B6A1E4A23F0800393621C4B9B6A35
:1015E80003F00103002B02D01423FB6100BF184B4A
:1015F8009B6A03F02003002B02D01523FB6100BF78
:10160800134B9B6A03F01003002B01D1104B9B6A0C
:101618000F4B9B6A03F02003002B05D00C4B5B6A31
:101628000B4A23F400535362094B9B6A084A43F060
:10163800FF0393620121F86805F05CFE03461A4631
:101648007B681A70FB6918462037BD4680BD00BF0D
:1016580000ED00E080B586B000AFF860B9607A6050
:1016680016237B6100BF2E4B9B6A03F48053002B2B
:1016780002D017237B6100BF294B9B6A03F40063E8
:10168800002B02D018237B6100BF254B9B6A03F413
:101698000073002B15D019237B6100BF204B9B6B77
:1016A8003B611F4B9B6A03F40043002B09D000BF2A
:1016B800BB68002B05D01A4B9B6A194A23F40043D8
:1016C8009362174B9B6A03F48063002B02D01A23A2
:1016D8007B6100BF124B9B6A03F48073002B02D01E
:1016E8001B237B6108E00E4B9B6A03F40053002B1D
:1016F80002D01C237B6100BF094B9B6A084A43F454
:101708007F4393620121F86805F0F4FD03461A4609
:101718007B681A707B6918461837BD4680BD00BFC4
:1017280000ED00E080B485B000AF78601D23FB6059
:1017380000BF264B9B6A03F00073002B02D01E23C8
:10174800FB6000BF214B9B6A03F08073002B02D023
:101758001F23FB6000BF1D4B9B6A03F48013002B03
:1017680002D02023FB6000BF184B9B6A03F40023C0
:10177800002B02D02123FB6000BF144B9B6A03F4AB
:101788008023002B02D02223FB6000BF0F4B9B6AF3
:1017980003F40033002B02D02323FB6000BF0B4B64
:1017A8009B6A03F48033002B02D02423FB6000BF24
:1017B800064B9B6A054A6FEA03436FEA1343936239
:1017C800FB6818461437BD4680BC704700ED00E042
:1017D80080B485B000AF78602523FB6000BF294B3B
:1017E8009B69BB60274B5B6903F04003002B254BCB
:1017F8005B6903F00103002B02D02623FB6035E070
:10180800204B5B6903F00203002B02D02723FB6007
:101818002CE01C4B5B6903F00403002B02D0282347
:10182800FB6023E0174B5B6903F00803002B02D031
:101838002923FB601AE0134B5B6903F01003002BAC
:1018480002D02A23FB6011E00E4B5B6903F02003F2
:10185800002B02D02B23FB6008E00A4B5B6903F0E6
:101868008003002B02D02C23FB6000BF054B5B6973
:10187800044A43F0FF035361FB6818461437BD461A
:1018880080BC7047D0ED00E080B485B000AF7860D0
:101898007B689B69FB601B4B5B691A4A43F4807346
:1018A8005361BFF34F8F00BF00BF00BFBFF36F8FFF
:1018B80000BF00BF00BFFB6833F8023C7B81114BBF
:1018C8005B69104A23F480735361BFF34F8F00BFE5
:1018D80000BF00BFBFF36F8F00BF00BF00BF7B8991
:1018E80003F47F43B3F55F4F05D17B89DBB2022B4D
:1018F80001D1012300E0002318461437BD4680BCFF
:10190800704700BF00ED00E080B584B000AF78609C
:1019180039600023FB6000BF3B6800221A70284B27
:10192800DB6A03F00203002B42D1254BDB6A002B54
:1019380040DB234BDB6A03F08043002B3BD000BF26
:101948007868FFF7A1FF0346002B04D000BF7B682F
:101958001B68FB602FE01A4B9B6ADBB2002B06D09A
:101968003A6801217868FFF7FDFDF86023E0144B21
:101978009B6A03F47F43002B07D03A6801217868FB
:10198800FFF768FE0346FB6015E00D4B9B6AB3F555
:10199800803F04D37868FFF7C5FEF8600BE0094B79
:1019A8005B69002B07D07868FFF712FFF86002E048
:1019B80000BF00E000BFFB6818461037BD4680BD79
:1019C80000ED00E0D0ED00E080B586B000AFF86033
:1019D800B9607A6000237B617B6800221A70BB685B
:1019E800033B092B3AD801A252F823F01D1A000133
:1019F800291A0001371A0001471A0001511A00017B
:101A0800651A0001651A0001651A0001651A0001CE
:101A18005B1A00017968F868FFF776FF786122E0C1
:101A28007A680021F868FFF79DFD78611BE07A6805
:101A38000021F868FFF70EFE03467B6113E0F868A3
:101A4800FFF770FE78610EE0F868FFF7C1FE786175
:101A580009E07968F86805F059FC04E0B968F868A5
:101A680005F062FC00BF7B681B7883F00103DBB2E2
:101A7800002B03D0B968F86805F032FC7B6918467A
:101A88001837BD4680BD00BF80B485B000AF786010
:101A98007B68BB60BB681B680C4A934204D0BB6878
:101AA8001B680B4A934208D1BB682833BB60BB68EC
:101AB8007B607B689B69FB6002E0BB681B68FB601E
:101AC80000BF00BF1437BD4680BC70475B12FAFEEA
:101AD8005A12FAFE80B594B000AFF860B9607A6027
:101AE8003B600023FB64294B5B68C3F30803BB64BA
:101AF8000023BB63BB6B7B637B6B83F3118800BFE5
:101B0800BFF36F8F00BF00BF07F132037A68B9686F
:101B1800F86805F014FC78647B6C3B647B68FB63B5
:101B280000BF07F133031A46B96C786CFFF74CFF16
:101B3800F86497F83330002B23D107F110032022E3
:101B4800796C184608F072FC97F83230002B0BD0ED
:101B5800FB6AC3F30803002B0CD1FB6A6FEA53231B
:101B68006FEA4323FB6205E0FB6A23F4FF7323F06B
:101B78000103FB6207F110031946F86C05F057FBE7
:101B880000E000BF5037BD4680BD00BF00ED00E05B
:101B980080B400AF074B5B69064A43F010035361FA
:101BA800044B5B69034A23F00803536100BFBD4639
:101BB80080BC704700ED00E0EFF30880EFF3098187
:101BC80001B57246FFF786FF01BD00BF00200E4930
:101BD8000870202080F311880C484FF0AA014FF4B8
:101BE800006207F090F909484FF40061401880F34B
:101BF8000988EFF314800221084380F31488BFF3A7
:101C08006F8F05F027FC0000EB070030300D003027
:101C180080B584B000AF7860114B9B687A689A42AF
:101C280016D1EFF30583FB60FB68002B14BF01237B
:101C38000023DBB2002B0BD00A4B5B68094A43F048
:101C480080535360074B5B6A064A23F40043536290
:101C5800786802F029FA00BF1037BD4680BD00BF82
:101C68005000003000ED00E001B507F07CFABDE857
:101C7800014015498A684FF040001044EFF3098C81
:101C880080E8F01F202080F31288BFF36F8F0F4F7A
:101C98004FF00066CA698A603E60D2F8B4000C4C06
:101CA8002060D2F8B8000023C2F8B83080F3118859
:101CB80002F1400090E8F01F8CF3098801B501F0AB
:101CC8009DFABDE8014070475000003004ED00E087
:101CD8004C0700301EF0040F0CBFEFF30880EFF341
:101CE8000980816911F8021C0229FFD001B57246EA
:101CF80005F0BAFA01BD00BF80B483B000AF034657
:101D0800FB7197F90730002B0BDBFB7903F01F02FF
:101D1800064997F907305B09012000FA02F241F8F9
:101D2800232000BF0C37BD4680BC704700E100E0AF
:101D380080B483B000AF03463960FB7197F9073070
:101D4800002B0ADB3B68DAB20C4997F907305201DD
:101D5800D2B20B4483F800230AE03B68DAB20849A0
:101D6800FB7903F00F03043B5201D2B20B441A76FD
:101D780000BF0C37BD4680BC704700BF00E100E0E3
:101D880000ED00E080B400AF094B0A4A23F07F035E
:101D98009360BFF34F8F00BF00BF00BFBFF36F8FCB
:101DA80000BF00BF00BF00BFBD4680BC704700BF7A
:101DB8000000000100ED00E080B483B000AF0D4BDF
:101DC800D3F888300B4A23F47003C2F88830EFF355
:101DD80014833B603B6823F004037B607B6883F3D8
:101DE8001488BFF36F8F00BF00BF00BF0C37BD461C
:101DF80080BC704700ED00E080B487B000AFF860A9
:101E0800B9607A603B607B68203B7B61124A7B69E2
:101E18009A617B699B6923F001027B699A613A6840
:101E28007B691A603A6A7B695A607A6A7B699A6048
:101E3800BA6A7B69DA607B694FF08072DA617A6925
:101E4800FB681A66FB680022C3F8B82000BF1C377D
:101E5800BD4680BC704700BF71080001F0B585B071
:101E680000AFF860B9607A6005F002FB0B4AFB68C6
:101E78009360FB68D3F8B430094A136001F0BEF9E7
:101E88007D68BE682C4686F309880020054B984774
:101E98002046002100220023034C20475000003038
:101EA8004C070030857400017108000180B400AF50
:101EB800034B10221A6100BFBD4680BC704700BFAB
:101EC80000ED00E080B483B000AF03463960FB71D9
:101ED80097F90730002B0ADB3B68DAB20C4997F90F
:101EE80007305201D2B20B4483F800230AE03B6862
:101EF800DAB20849FB7903F00F03043B5201D2B26E
:101F08000B441A7600BF0C37BD4680BC704700BF33
:101F180000E100E000ED00E080B584B000AFEFF331
:101F280005837B607B68FB60FB68103BFB60FB689C
:101F3800DB00074A1344BB60BB685B68BA68126879
:101F480010469847FFF7F8FA00BF1037BD4680BD26
:101F580010A6000180B584B000AF0D4A0D4B0121D9
:101F68000D4805F0CBFE3B1D00221A605A609A60AE
:101F78000A4B7B60074A094BD31ABB603B1D012102
:101F8800184605F0CDFE00BF1037BD4680BD00BF26
:101F98000000003000000430F0AC000150000030B8
:101FA80080B582B000AF78607968034805F0D1FA4F
:101FB80000BF0837BD4680BD90ED00E080B483B017
:101FC80000AF7860034A7B68136300BF0C37BD46D7
:101FD80080BC704790ED00E080B483B000AF7860BB
:101FE800034A7B68936000BF0C37BD4680BC7047CE
:101FF80090ED00E080B483B000AF7860034A7B685E
:10200800D36000BF0C37BD4680BC704790ED00E040
:1020180080B400AF024BDB681846BD4680BC7047F1
:1020280090ED00E080B483B000AF7860034A7B682D
:10203800136100BF0C37BD4680BC704790ED00E0CF
:1020480080B400AF024B1B691846BD4680BC704780
:1020580090ED00E080B483B000AF074B1B687B6055
:102068007B681B0ADBB27B607B68DBB218460C37E7
:10207800BD4680BC704700BF90ED00E080B500AF62
:102088000248FFF79BFF00BF80BD00BFAAFF4400C6
:1020980080B586B000AFF8607A603B600B46FB7293
:1020A800094B1B787B617B69DAB2F97A0123F868FE
:1020B80005F0A1FB78617B69DAB2034B1A707B6982
:1020C80018461837BD4680BDEA07003080B584B091
:1020D80000AF78600B46FB700023FB605EE0FA6897
:1020E80013465B0013449B001A467B6813445B68E5
:1020F800002B4FD0FA6813465B0013449B001A4626
:102108007B6813441868FA6813465B0013449B0005
:102118001A467B6813445B68194605F090FA014635
:102128002348FA6813469B0013449B000344196034
:102138001F49FA6813469B0013449B000B441B6815
:1021480013F1160F02D16FF015032CE01849FA6845
:1021580013469B0013449B000B441B68154A1278D6
:10216800934202DB6FF015031DE01149FA6813462C
:102178009B0013449B000B441B681846FA681346DF
:102188009B0013449B000A4A13440433194605F084
:10219800E8FA00E000BFFB680133FB60FB78FA68EF
:1021A8009A429CDB002318461037BD4680BD00BF0D
:1021B80050070030EA07003080B400AF084B052212
:1021C8005A60BFF34F8F00BF00BF00BFBFF36F8FD0
:1021D80000BF00BF00BF00BFBD4680BC704700BF46
:1021E80090ED00E080B400AFBFF35F8F00BF00BF89
:1021F80000BF034B00225A6000BFBD4680BC704739
:1022080090ED00E090B583B000AF254B1C6805F059
:1022180068FC03469C4202D94FF0FF333CE000BF04
:10222800FFF7E0FFFFF72AFF00237B600BE01C4B62
:102238005A687B681B0113441946786805F0B7F99A
:102248007B6801337B60164B1B687A689A42EED331
:10225800134B1B68DAB2134B1A70124805F064FC72
:10226800034613F1160F02D16FF0150314E00D4B5E
:102278001B783B6006E03B68184605F07AF93B6836
:1022880001333B6005F02DFC03461A463B68934238
:10229800F1DBFFF791FF002318460C37BD4690BDD0
:1022A800CCAC0001EA07003080B582B000AF78609E
:1022B8003960044B1B68786898470023184608372C
:1022C800BD4680BD6407003080B483B000AF78603D
:1022D800074A7B681360074B9B7843F00203DAB226
:1022E800044B9A7000BF0C37BD4680BC704700BFD6
:1022F800640700301800003080B582B000AF0023BA
:102308007B600C4B073323F007037B60094B0733D3
:1023180023F00703C3F1405303F580233B603A6879
:102328007968054804F050F9002318460837BD4677
:1023380080BD00BF301500306807003080B487B01A
:1023480000AFF860B9607A60BB687B617B699B68A5
:10235800072B37D801A252F823F000BF85230001CC
:102368008D230001952300019F230001A72300016D
:10237800B1230001BB230001C32300017B68174A76
:102388001A6025E07B6800221A6021E07B684FF420
:10239800E1021A601CE07B68114A1A6018E07B6849
:1023A8004FF400421A6013E07B684FF4FA521A6047
:1023B8000EE07B6800221A600AE07B684FF4612215
:1023C8001A6005E07B6800221A606FF0150300E0D0
:1023D800002318461C37BD4680BC704740787D01F5
:1023E8000048E80180B582B000AF7860124B18460B
:1023F80005F07CFD0346002B01DA796817E07B685D
:102408000A2B04D10C4B0D21184605F060FD0A4A31
:102418007B68DBB21946104605F059FD06494FF0B6
:102428000A024FF00003084605F06AFD79680B467A
:1024380018460837BD4680BDFCA5000180B500AF31
:102448000348FFF741FF0248FEF786F900BF80BD49
:10245800ED23000180B500AF084B184605F018FDC4
:10246800034683F00103DBB2002B02D06FF01203A6
:1024780002E0FFF7E3FF0023184680BDFCA500013A
:1024880080B58AB000AF3B4683E803003B681B0970
:1024980003F00F037B623B681B0ADBB23B623B68BD
:1024A80003F00F03FB617B68BB61394B002B02D142
:1024B8006FF0150367E0364BFB6001223B6A02FAB6
:1024C80003F33B61BB6903F00203002B02D0012335
:1024D8007B7509E0BB6903F00403002B02D00223DB
:1024E8007B7501E000237B75BB6903F00103002BBA
:1024F80002D000233B750CE0BB6903F00803002BF6
:1025080002D001233B7504E0FB69DBB20133DBB287
:102518003B75BB6903F01003002B02D00123BB7588
:1025280001E00023BB75BB699B11DBB203F0030319
:10253800DBB2FB7507F10C03184604F0D9FC03461F
:10254800002B02D06FF085031DE0BB6903F0080380
:10255800002B17D0BB6903F02003002B09D0FA68C1
:1025680001213B6A01FA03F31946104604F040FDC5
:1025780008E0FA6801213B6A01FA03F3194610469C
:1025880004F043FD002318462837BD4680BD00BF30
:102598000080005080B588B000AF786039607B68F3
:1025A8005B687B617B691B683B617B681B69FB60BF
:1025B8003B681B79042B1CD801A252F823F000BFFA
:1025C800DD250001E3250001E9250001EF250001D3
:1025D800F52500010023FB760EE00323FB760BE0D4
:1025E8000123FB7608E06FF0850367E06FF0850351
:1025F80064E06FF0150361E0FB7E1946386904F06A
:102608002EFAF861FB69002B02DA6FF0850355E0BA
:102618003B681A79FB681A763B685B79012B05D110
:102628000021386904F00BFAF8610CE03B685B792B
:10263800032B05D10121386904F001FAF86102E0A1
:102648006FF085033AE0FB69002B02DA6FF085032F
:1026580034E03B685A79FB685A763B689B790533C6
:102668001946386904F0DDF9F861FB69002B02DAD4
:102678006FF0850322E03B689A79FB689A763B689D
:10268800DB79002B02D06FF0850317E03B68DA791D
:10269800FB68DA763B6819687B695B691A463869B2
:1026A80006F09EF8F861FB69002B02DA6FF08503EB
:1026B80004E03B681A68FB685A6100231846203713
:1026C800BD4680BD80B483B000AF03463960FB715E
:1026D80097F90730002B0ADB3B68DAB20C4997F907
:1026E80007305201D2B20B4483F800230AE03B685A
:1026F800DAB20849FB7903F00F03043B5201D2B266
:102708000B441A7600BF0C37BD4680BC704700BF2B
:1027180000E100E000ED00E080B485B000AF194BA7
:102728009B68FB60174B1B687B60164B9B68BB6004
:10273800FB68002B02D1144B1B68FB60BB68002BA5
:1027480002D1114B1B68BB607B6803F48033002BFC
:1027580003D1FA68BB689A4208D20C4B1A680A4B34
:102768001B681344094A1360064B1B68064B1A681A
:10277800BB68D21A054B1B68134418461437BD466C
:1027880080BC704710E000E09C070030A8070030CC
:10279800684620F007018D4681B583B000AFFFF78A
:1027A800BBFF164B1A68164B1B681344144A136078
:1027B800124B00221A60124B1A68124B1B68D31A6C
:1027C8007B607B68104AA2FB03231B0B3B603B68C2
:1027D80041F2883203FB02F20A4B1B681344094A90
:1027E80013603B68184602F0D5F9FEF7A5FE00BF56
:1027F8000C37BD46BDE8814085467047A8070030C4
:10280800A0070030A40700305917B7D180B594B09D
:1028180000AF78600B46FB70FB78002B0ED07B680E
:10282800B3F1FF3F0AD15F4B1B685E4A23F00103F7
:1028380013605D4B4FF07F421A60AFE05A4B1B6844
:10284800FB647B68B3F1FF3F01D07B6801E040F691
:102858001A537B607B68012B07DD7B6840F61B52AF
:102868009342A8BF1346013B00E000237B604F4B17
:102878007B63EFF311833B633B6BFB622023BB62FB
:10288800BB6A83F3128800BFBFF36F8F00BFFB6A78
:10289800BB607B6B7B6200BF7B6B3B6200BFBB682E
:1028A8003B61FFF739FFB8643E4B9B687B64404B44
:1028B8001A68BB6C13443E4A13603E4B00221A60F0
:1028C8003B4B1A683C4B1B68D31A3B643B6C002B90
:1028D80004DA354B4FF480621A602CE07B6841F2D1
:1028E800883202FB03F3FB63FA6B3B6C1344FB6314
:1028F800FB6B03F59C530733304AA2FB03231B0BE6
:1029080041F2883202FB03F3FB63FA6B3B6CD31A88
:10291800FB63FB6BB3F5806F38BF4FF48063FB63D9
:10292800FB6B274A934203D91F4B254A1A6002E0E2
:102938001D4AFB6B13601B4B9B68BB631A4B1B68E0
:10294800184A013B5360174B00229A607A6CBB6BA4
:102958009A420AD2FA6CBB6BD21A7B6C1A44144B9B
:102968001B681344124A136007E07A6CBB6BD21AD7
:102978000F4B1B6813440E4A13600C4BFB613B69F9
:10298800FB60FB68BB61BB697B617B6983F3118872
:1029980000BFBFF36F8F00BF00BF00BF5037BD46F9
:1029A80080BD00BF10E000E09C0700309C070030AD
:1029B800A0070030A8070030A40700305917B7D186
:1029C800D0E3FF0080B58EB000AF204B3B62EFF341
:1029D8001183FB61FB69BB6120237B617B6983F306
:1029E800128800BFBFF36F8F00BFBB697B603B6A73
:1029F8003B6100BF3B6AFB6000BF7B68BB60144B58
:102A08001A68144B1B68D31A7B63FFF785FE0246CE
:102A18007B6B13443B630D4BFB62BB683B603B68BD
:102A2800BB62BB6A7B627B6A83F3118800BFBFF31A
:102A38006F8F00BF00BF00BF3B6B074AA2FB032399
:102A48001B0B18463837BD4680BD00BF9C070030B9
:102A5800A0070030A40700305917B7D180B58EB051
:102A680000AF1C4B7B62EFF311833B623B6AFB6157
:102A78002023BB61BB6983F3128800BFBFF36F8F4C
:102A880000BFFB69BB607B6A7B6100BF7B6A3B61FF
:102A980000BFBB68FB60104B1B687B63FFF73CFE05
:102AA80002467B6B13447B630A4B3B63FB687B608A
:102AB8007B68FB62FB6ABB62BB6A83F3118800BF59
:102AC800BFF36F8F00BF00BF00BF7B6B184638375E
:102AD800BD4680BD9C070030A007003080B500AF20
:102AE80001214FF0FF30FFF7EDFD0C4B41F288322A
:102AF8001A600B4B00221A60084B1B68094A013BFD
:102B08005360084B00229A60064B1B68054A43F045
:102B1800070313600023184680BD00BF9C070030E0
:102B2800A807003010E000E080B582B000AF0B4B82
:102B38007B6005E0786806F01CF97B6814337B60DD
:102B48007B68074A934234BF01230023DBB2002B82
:102B5800F0D100BF00BF0837BD4680BDD4A5000135
:102B680010A6000180B58CB000AF78603960EFF333
:102B78001183FB61FB697B6220233B623B6A83F321
:102B8800128800BFBFF36F8F00BF7B6A7B611D4B4C
:102B98009B68BB6100BF3B68002B0DD03B68FB62A4
:102BA800FB6ADB69C3F30803002B14BF012300236E
:102BB800DBB2002B00D000BF00BFBA693968786863
:102BC80006F00CF93968786806F027F93B68002B9D
:102BD80006D03B68BB62BB6ADB69C3F30803002B02
:102BE8007B693B613B69FB60FB6883F3118800BF2D
:102BF800BFF36F8F00BF00BFB86906F0E4F8303745
:102C0800BD4680BD5000003080B483B000AF03469D
:102C18003960FB7197F90730002B0ADB3B68DAB2A1
:102C28000C4997F907305201D2B20B4483F80023BC
:102C38000AE03B68DAB20849FB7903F00F03043B6A
:102C48005201D2B20B441A7600BF0C37BD4680BC85
:102C5800704700BF00E100E000ED00E080B584B0FF
:102C680000AFF860C7E90023FB6803F11800D7E953
:102C78000023034901F034FE00BF1037BD4680BD74
:102C88005D970001F0B58FB006AF314BFB6129E0CD
:102C9800FB691E68FB695B68FB60FB699A68BA6040
:102CA800FB69D8687860FB691B69FA695269F96938
:102CB8008969F869C069FC69246AFD696D6A0595C6
:102CC800049403900291019200937B68BA68F968B2
:102CD800304600F0F5F9FB691B68FA695A66FB692A
:102CE8003033FB61FB691B4A934234BF0123002345
:102CF800DBB2002BCCD100F03FFF154BBB6118E0D5
:102D0800BB69D3E90A23C7E90423D7E904234FF0B1
:102D1800FF304FF0FF318B4208BF824206D0BB69BB
:102D28001968D7E90423084606F0A0F8BB693033D0
:102D3800BB61BB69074A934234BF01230023DBB25E
:102D4800002BDDD100F058FF00BF2437BD46F0BD91
:102D5800C0A70001C0A7000180B500AF044A054B19
:102D6800D31A1A460021034806F0CDF880BD00BFEB
:102D7800F00700305000003080B586B000AF034641
:102D8800FB71FB79114A52F823307B6111E07B69B2
:102D98005B683B613B69002B04D0786906F0D1F889
:102DA800F86003E07B691B689847F8607B69083323
:102DB8007B61FB790133054A52F823307A699A42DC
:102DC800E5D300BF00BF1837BD4680BD28000030DE
:102DD80080B584B000AFF860B9607A600B4B01220F
:102DE8001A700320FFF7C8FF02F088F806F0DFF832
:102DF8000420FFF7C1FFFFF745FFFDF7A1FB0448DB
:102E080006F061F800BF1037BD4680BDEB07003003
:102E18009000003080B58CB006AF78607A681346B1
:102E28005B0013449B01174A13447B617A6813467D
:102E38009B0013449B01144A13443B614FF4A07355
:102E4800FB60124BBB607A681346DB009B1A9B0041
:102E58000F4A1344BA680592012204920F22039282
:102E6800002202920022019200930A4BFA68396903
:102E7800786900F025F9786906F015F800BF183769
:102E8800BD4680BD50010030F00B003094AB00010E
:102E980050000030CF8F000180B582B000AF78605D
:102EA8007868FFF7B7FF7A6813465B0013449B0105
:102EB800234A991823487A681346DB009B1A9B001B
:102EC80003440C3319607B68D8B21E497A681346EC
:102ED800DB009B1A9B000B44103302461A707B6878
:102EE800DB02194A1344184605F0A0FF034603F510
:102EF800006114487A681346DB009B1A9B00034460
:102F0800043319607B6803331B010E4A99180D4876
:102F18007A681346DB009B1A9B0003441833196038
:102F280008497A681346DB009B1A9B000B44183348
:102F38001B6801221A7200BF0837BD4680BD00BF5A
:102F48005001003050000030300D003080B588B09E
:102F580006AF00F0F7FE124B124ADA61124B0593E6
:102F68000123049300230393002302930023019376
:102F7800002300930D4B4FF480620D49094800F07F
:102F88009FF87860074805F08EFF064800F07CFB44
:102F98000020FFF781FF7B6818460837BD4680BDD3
:102FA80050000030900000309CAB0001D92D00018A
:102FB800F007003080B582B000AF7860024A7968C7
:102FC8000248FEF74BFF00BFD92D000190000030EA
:102FD80080B582B000AF05F086FF0020FFF7CCFE79
:102FE800344805F023FF034603F500637B607B68E4
:102FF8003B603B6883F3088800BF00BFFF216FF088
:103008000100FFF701FE00216FF00400FFF7FCFD4F
:1030180000216FF00B00FFF7F7FD00216FF00A00A9
:10302800FFF7F2FD00216FF00900FFF7EDFD002129
:103038006FF00800FFF7E8FD1F4B5B6A1E4A43F478
:10304800E02353621C4B5B6A1B4A43F40023536220
:10305800194B00229A63184BDB689BB2164A43F05F
:10306800BF6343F40833D36000BFFEF791FDFEF75A
:103078001DFF114B4FF0FF329A620F4B4FF0FF329A
:10308800DA6200BFFFF7BEF8FEF764FF00BF0B4827
:1030980000F0C0F8FFF748FD03F095FB0120FFF7AB
:1030A8006BFE0220FFF768FEFFF750FF0346184645
:1030B800FFF780FF300D003000ED00E01002003017
:1030C80080B59AB004AFF860B9607A603B60FB687D
:1030D8006833184605F0D8FFF8683B6F0422F96E8C
:1030E80006F021F87A68B968F86805F0D9FF7865BC
:1030F800BB6E02937B6E01933B6E00933B687A6DC7
:10310800B968F868FEF778FEFB6800225A66FB6823
:103118003A681A67FB683A6E5A67FB687A6E9A676C
:10312800FB68BA6EDA67334B7B64EFF311833B6459
:103138003B6CFB632023BB63BB6B83F3128800BF2C
:10314800BFF36F8F00BFFB6B7B617B6C7B6300BF42
:103158007B6C3B6300BF7B69FB62274B9A6AFB6809
:10316800C3F88020244AFB689362224B3B65FB6AC4
:103178003B613B69FB64FB6CBB64BB6C83F31188EC
:1031880000BFBFF36F8F00BF00BF00BF7B6F002B76
:103198000BD0FB6884331F22796F184607F05BF960
:1031A800FB68002283F8A32003E0FB68002283F871
:1031B8008420114B9B68002B05D1FB680022C3F8C3
:1031C800B0207B6D12E00C4B9B68D3F8B020FB68F5
:1031D800C3F8B020FB68303300221A605A609A6046
:1031E800DA60FB68012283F838207B6D184658376F
:1031F800BD4680BDBC0700305000003080B500AF30
:10320800034B9B68184601F011FE00BF80BD00BF4C
:103218005000003080B483B000AF78607B68012232
:103228005A737B6801221A737B680022C3F8A420B2
:103238007B680022C3F8A8207B680022C3F8B0206E
:10324800034A7B68936000BF0C37BD4680BC70475B
:103258005000003080B584B000AFF860C7E90023A3
:10326800FB6803F11800D7E90023034901F038FB94
:1032780000BF1037BD4680BD5D97000180B400AF28
:10328800044B9B68DA7B013AD2B2DA7300BFBD46C1
:1032980080BC70475000003080B487B000AF7860C1
:1032A8007B683B61134B9B683A69C3F8B820114BA4
:1032B8009B686FF00A02C3F8BC200F4B5B680E4A8C
:1032C80043F0805353600023FB60FB68BB60BB681E
:1032D80083F3118800BFBFF36F8F00BF00BF054B9A
:1032E8009B68D3F8BC307B617B6918461C37BD46A8
:1032F80080BC70475000003000ED00E080B59AB007
:1033080000AF7860786806F0A6F80346002B19D05D
:103318007B687B66786E06F0BBF8786E06F06CF911
:103328000346002B0DD07B6E3B663B6EFB65684BFE
:10333800BB653B6E7B657B6D184605F0D8FF00BF0B
:1033480000BF00BF7B683B63386B06F091F8386BB1
:1033580006F052F90346002B52D03B6BFB62FB6A26
:10336800BB625B4B7B62FB6A3B62786A05F040FF9D
:103378000346002B04D0786A05F03AFF034600E0C4
:103388000023FB6133E03B6ABB61FB697B61BB697E
:1033980093F90E303B617B6993F90E30FB603A6913
:1033A800FB689A4203D0FA683B69D31A00E000230D
:1033B800002B06DDFB693A6A1146184605F069FFDD
:1033C8001DE0FB69002B10D0FB691946786A05F0EF
:1033D80034FF0346002B06D0FB691946786A05F0CE
:1033E8002CFF034602E0002300E00023FB61FB6999
:1033F800002BC8D13B6A1946786A05F031FF00BF37
:1034080000BF344B9B687A689A420CBF01230023A3
:10341800DBB23B652E4BFB640023BB64F86C05F004
:10342800E7FE78647B6C002B01D07B6CBB64BB6CC3
:1034380000BF3B643B6C002B02D1264BDB6800E0ED
:103448003B6CFB63FB6BBB633B6D7B637B6B002B54
:1034580001D0012322E01F4B9B68184605F0A3FF0B
:103468000346002B01D0012318E01A4B9B6818462D
:1034780005F07FFF0346002B05D1B86B05F089FFE7
:103488000346002B01D0012308E0B86B05F09FFF2D
:103498000346002B01D0012300E00023002B0ED0AF
:1034A8000C4B9B68FA6B9A4202D0F86B01F0B6F8A5
:1034B800F86B06F0D8F8074AFB6BD36103E0054BBD
:1034C8009B68044AD36100BF00BF6837BD4680BD12
:1034D800700000305000003080B594B000AF7860C4
:1034E800786805F0B8FF034683F00103DBB2002BD0
:1034F80000F0C280786805F083FF0346002B00F0D7
:10350800BB807B68FB62F86A05F0B2FFF86A06F0D8
:1035180073F80346002B52D0FB6ABB62BB6A7B621E
:10352800574B3B62BB6AFB61386A05F061FE034694
:10353800002B04D0386A05F05BFE034600E0002348
:10354800BB6133E0FB697B61BB693B617B6993F9D4
:103558000E30FB603B6993F90E30BB60FA68BB68BC
:103568009A4203D0BA68FB68D31A00E00023002B04
:1035780006DDBB69FA691146184605F08AFE1DE0AA
:10358800BB69002B10D0BB691946386A05F055FE97
:103598000346002B06D0BB691946386A05F04DFE74
:1035A800034602E0002300E00023BB61BB69002B57
:1035B800C8D1FB691946386A05F052FE00BF00BF42
:1035C8000023FB642E4BBB6400237B64B86C05F0BE
:1035D8000FFE38643B6C002B01D03B6C7B647B6C2A
:1035E80000BFFB63FB6B002B02D1264BDB6800E0BE
:1035F800FB6BBB63BB6B7B63FB6C3B633B6B002B65
:1036080001D0012322E01F4B9B68184605F0CBFE32
:103618000346002B01D0012318E01A4B9B6818467B
:1036280005F0A7FE0346002B05D1786B05F0B1FE27
:103638000346002B01D0012308E0786B05F0C7FE94
:103648000346002B01D0012300E00023002B0ED0FD
:103658000C4B9B68BA6B9A4202D0B86B00F0DEFF45
:10366800B86B06F000F8074ABB6BD36103E0054B63
:103678009B68044AD36100BF00BF5037BD4680BD78
:10368800700000305000003080B590B000AF786016
:103698000023BB611F4BFB63EFF31183BB63BB6B61
:1036A8007B6320233B633B6B83F3128800BFBFF32C
:1036B8006F8F00BF7B6BFB60FB6BFB6200BFFB6B1C
:1036C800BB6200BFFB687B611BE0786805F0D4FF34
:1036D8000346002B02D17868FFF7FEFE0D4B7B6294
:1036E8007B693B613B693B623B6AFB61FB6983F336
:1036F800118800BFBFF36F8F00BF00BF00BF012359
:10370800BB61BB69002BE0D000BF00BF4037BD469E
:1037180080BD00BFAC07003090B59DB000AF7860A9
:1037280039608F4B9B68184605F082FF0346002BD3
:1037380000F0DB808A4B9C68894B9B68184605F033
:1037480065FF0346002B01D0082300E01023BC6668
:1037580087F86730002387F86630BB6E5A7B97F886
:1037680067301340DBB2002B40F0BF80BB6E5A7B42
:1037780097F867301343DAB2BB6E5A73B86E05F028
:103788006AFE0346002B19D0BB6E3B66386E05F007
:103798007FFE386E05F030FF0346002B0DD03B6EE0
:1037A800FB65FB6DBB656F4B7B65FB6D3B653B6DDF
:1037B800184605F09CFD00BF00BF00BF97F86730B2
:1037C800082B21D1BB6E9B68002B02D0B86E05F088
:1037D800ECFEB86E05F0C0FDBB6E6833184606F007
:1037E8008CF85F4B9B68BA6E9A420DD1EFF3058354
:1037F800FB64FB6C002B14BF01230023DBB2002BFE
:1038080002D0012387F866300123BB64554B7B64E3
:1038180000233B64786C05F0EBFCF863FB6B002B32
:1038280001D0FB6B3B643B6C00BFBB63BB6B002BE5
:1038380002D14B4BDB6800E0BB6B7B637B6B3B636C
:10384800BB6CFB62FB6A002B01D0012322E0444BD6
:103858009B68184605F0A7FD0346002B01D00123FD
:1038680018E03F4B9B68184605F083FD0346002B84
:1038780005D1386B05F08DFD0346002B01D00123DF
:1038880008E0386B05F0A3FD0346002B01D00123A7
:1038980000E00023002B0ED0314B9B687A6B9A42D4
:1038A80002D0786B00F0BAFE786B05F0DCFE2C4A8B
:1038B8007B6BD36103E02A4B9B68294AD36100BF25
:1038C80097F86730102B03D1B86E05F0C3FE0CE0F3
:1038D800B86E00F057FF97F86630002B02D02248E8
:1038E800FFF798FCB86E05F0B5FE204BBB623B684D
:1038F800BB60BB687B627B6A3B623B6A83F311886F
:1039080000BFBFF36F8F00BF00BF00BF1DE0EFF324
:1039180011837B617B693B612023FB60FB6883F338
:10392800128800BFBFF36F8F00BF3B69FB6605F0CD
:1039380062FBFB6EFB61FB69BB61BB6983F31188AA
:1039480000BFBFF36F8F00BF00BF786805F070FE3F
:103958000346002BDBD100BF00BF7437BD4690BDC6
:10396800500000307000003010020030AC0700300A
:1039780080B590B000AF7860786805F06CFD0346BC
:10398800002B19D07B68FB63F86B05F081FDF86BA1
:1039980005F032FE0346002B0DD0FB6BBB63BB6BFF
:1039A8007B63394B3B63BB6BFB62FB6A184605F0D4
:1039B8009EFC00BF00BF00BF344B9B687A689A42E8
:1039C8000CBF01230023DBB2BB622F4B7B620023B9
:1039D8003B62786A05F00CFCF861FB69002B01D0AA
:1039E800FB693B623B6A00BFBB61BB69002B02D12C
:1039F800264BDB6800E0BB697B617B693B61BB6A86
:103A0800FB60FB68002B01D0012322E01F4B9B6861
:103A1800184605F0C8FC0346002B01D0012318E026
:103A28001A4B9B68184605F0A4FC0346002B05D1E9
:103A3800386905F0AEFC0346002B01D0012308E0ED
:103A4800386905F0C4FC0346002B01D0012300E0CF
:103A58000023002B0ED00D4B9B687A699A4202D046
:103A6800786900F0DBFD786905F0FDFD074A7B69A0
:103A7800D36103E0054B9B68044AD36100BF00BFD4
:103A88004037BD4680BD00BF700000305000003098
:103A980080B590B000AF78600B46FB7000237B6167
:103AA800294BBB63EFF311837B637B6B3B63202361
:103AB800FB62FB6A83F3128800BFBFF36F8F00BFFE
:103AC8003B6BBB60BB6BBB6200BFBB6B7B6200BF69
:103AD800BB683B6130E07B685B7B03F02803002B0D
:103AE80014BF0123002387F83F3097F83F3083F055
:103AF8000103DBB2002B0CD07B689B68002B02D043
:103B0800786805F052FD786805F014FD7868FFF7CD
:103B1800E3FC0D4B3B623B69FB60FB68FB61FB69A7
:103B2800BB61BB6983F3118800BFBFF36F8F00BF10
:103B380000BF00BF01237B617B69002BCBD000BF96
:103B480000BF4037BD4680BDAC07003080B483B0AD
:103B580000AF084BDB697B60064B9B687A689A422A
:103B680014BF01230023DBB218460C37BD4680BCC6
:103B7800704700BF5000003080B58EB000AF002302
:103B88003B611C4B7B63EFF311833B633B6BFB6235
:103B98002023BB62BB6A83F3128800BFBFF36F8F19
:103BA80000BFFB6A7B607B6B7B6200BF7B6B3B6209
:103BB80000BF7B68FB6014E0FFF760FB0D4BFB6107
:103BC800FB68BB60BB68BB61BB697B617B6983F3D6
:103BD800118800BFBFF36F8F00BF00BF00BF012374
:103BE8003B613B69002BE7D000BF00BF3837BD46BB
:103BF80080BD00BFAC07003080B596B000AF002391
:103C08003B614D4B7B65EFF311833B653B6DFB647B
:103C18002023BB64BB6C83F3128800BFBFF36F8F94
:103C280000BFFB6C7B607B6D7B6400BF7B6D3B647E
:103C380000BF7B68FB6074E0404B9B68DA7B013215
:103C4800D2B2DA7300233B633D4BFB620023BB62B5
:103C5800F86A05F0CDFA78627B6A002B01D07B6A9E
:103C6800BB62BB6A00BF3B623B6A002B02D1334B8D
:103C7800DB6800E03B6AFB61FB69BB613B6B7B6116
:103C88007B69002B01D0012322E02C4B9B6818464E
:103C980005F089FB0346002B01D0012318E0274BD0
:103CA8009B68184605F065FB0346002B05D1B869EB
:103CB80005F06FFB0346002B01D0012308E0B8692B
:103CC80005F085FB0346002B01D0012300E000230B
:103CD800002B0ED0194B9B68FA699A4202D0F869FA
:103CE80000F09CFCF86905F0BEFC144AFB69D3613E
:103CF80003E0124B9B68114AD36100BF0E4BFB6374
:103D0800FB68BB60BB68BB63BB6B7B637B6B83F38C
:103D1800118800BFBFF36F8F00BF00BF00BF012332
:103D28003B613B69002B87D000BF05F025FC00BF35
:103D38005837BD4680BD00BFAC070030500000308A
:103D48007000003080B500AF024805F08EFD00BF5E
:103D580080BD00BF6C00003080B59AB000AF624BE8
:103D68003B62EFF31183FB61FB69BB6120237B613D
:103D78007B6983F3128800BFBFF36F8F00BFBB69F5
:103D88007B603B6A3B6100BF3B6AFB6000BF7B68AE
:103D9800BB60564BFB63564B9B681946F86B05F0A6
:103DA80039FAB863524B9B68184605F08BFA26E03F
:103DB800BB6B7B634E4B9B683B637B6BFB623B6BD4
:103DC80093F90E30BB62FB6A93F90E307B62BA6AD4
:103DD8007B6A9A4203D07A6ABB6AD31A00E000234E
:103DE800002B07DD7B6B424A92681146184605F0A6
:103DF80050FA0DE0B96BF86B05F00CFAB863BB6BC1
:103E0800002BD5D13A4B9B681946F86B05F028FA78
:103E180000BF0123FB65354BBB6500237B65B86D8F
:103E280005F0E6F938653B6D002B01D03B6D7B65ED
:103E38007B6D00BFFB64FB6C002B02D12C4BDB6855
:103E480000E0FB6CBB64BB6C7B64FB6D3B643B6C50
:103E5800002B01D0012322E0254B9B68184605F072
:103E6800A2FA0346002B01D0012318E0204B9B68DF
:103E7800184605F07EFA0346002B05D1786C05F04C
:103E880088FA0346002B01D0012308E0786C05F07E
:103E98009EFA0346002B01D0012300E00023002BEB
:103EA8000ED0134B9B68BA6C9A4202D0B86C00F0E3
:103EB800B5FBB86C05F0D7FB0D4ABB6CD36103E0CA
:103EC8000B4B9B680A4AD36100BF074B7B66BB68F4
:103ED8003B607B6E3B6600BF3B681846FFF7DCF92A
:103EE80000BF6837BD4680BDAC07003070000030A9
:103EF80050000030F0B593B000AFC7E9000100BF33
:103F0800D7E90001014303D105F008FA00236CE06A
:103F1800D7E900016FF0010C4FF0FF36BCEB00024F
:103F280066EB0103012A73F1000306DA05F05EFE71
:103F380002463B6813447B6404E03A686FF001036F
:103F48009B1A7B64D7E90023C7E90623294B7B63C7
:103F5800EFF311833B633B6BFB622023BB62BB6ABD
:103F680083F3128800BFBFF36F8F00BFFB6A3B610A
:103F78007B6B7B6200BF7B6B3B6200BF3B697B61F5
:103F88001D4B9B681D4A13601B4B9B681846FFF727
:103F9800EFFC194B9968D7E906230846FFF75AF949
:103FA800154B9B68184605F0B5FA124BFB637B6905
:103FB800FB60FB6BBB6300BFFB681846FFF76CF93F
:103FC80005F014FE02467B6C9B1A3B643B6CDA17C7
:103FD8001C461546C7E90045D7E90023012A73F1B5
:103FE800000301DB3B6800E0002318464C37BD4660
:103FF800F0BD00BFAC07003050000030B8070030FB
:1040080080B58EB000AF7860214B7B63EFF31183EE
:104018003B633B6BFB622023BB62BB6A83F3128862
:1040280000BFBFF36F8F00BFFB6ABB607B6B7B6217
:1040380000BF7B6B3B6200BFBB683B61786805F0E3
:1040480057FA0346002B0DD0786805F085F9786893
:1040580005F070FA7868FFF73FFA39690C4805F0FF
:10406800AFFB10E00A4BFB613B69FB60FB68BB617F
:10407800BB697B617B6983F3118800BFBFF36F8FD6
:1040880000BF00BF00BF00BF3837BD4680BD00BFBE
:10409800AC07003080B400AF024B9B681846BD46A1
:1040A80080BC70475000003080B5C0B000AF786069
:1040B800786805F04FFA034687F8FF30C44BC7F815
:1040C800F830EFF31183C7F8F430D7F8F430C7F8B5
:1040D800F0302023C7F8EC30D7F8EC3083F312889F
:1040E80000BFBFF36F8F00BFD7F8F030FB60D7F881
:1040F800F830C7F8E83000BFD7F8F830C7F8E43030
:1041080000BFFB68FB627B685B7B03F00803002B46
:1041180015D0AF4BC7F8E030FB6A3B613B69C7F885
:10412800DC30D7F8DC30C7F8D830D7F8D83083F38C
:10413800118800BFBFF36F8F00BF00BFE3E17B684A
:10414800C7F8D430FB6ABB62012387F8D330D7F8AD
:10415800D4306833C7F8CC30D7F8D40005F08CFADF
:10416800C7F8C800D7F8C830002B37D0D7F8D430F4
:104178005A7B97F8D330002B01D0202300E040234E
:104188001343DAB2D7F8D4305A73EFF30583C7F87C
:10419800C430D7F8C430002B14BF01230023DBB28E
:1041A800002B05D0B96AD7F8D400FFF7B5FA96E125
:1041B800884B9B68D7F8CC10184605F067FA844BF3
:1041C800C7F8C030BB6A7B61D7F8C030C7F8BC30CD
:1041D80000BF7B691846FFF75FF880E197F8D33096
:1041E800002B01D0082200E01022D7F8D430C7F8FD
:1041F800B830134687F8B730002387F8B630D7F8B9
:10420800B8305A7B97F8B7301340DBB2002B40F038
:10421800F480D7F8B8305A7B97F8B7301343DAB23E
:10422800D7F8B8305A73D7F8B80005F014F9034630
:10423800002B25D0D7F8B830C7F8B030D7F8B00081
:1042480005F026F9D7F8B00005F0D6F90346002B9B
:1042580015D0D7F8B030C7F8AC30D7F8AC30C7F8BD
:10426800A8305D4BC7F8A430D7F8AC30C7F8A030F9
:10427800D7F8A030184605F03AF800BF00BF00BFD5
:1042880097F8B730082B28D1D7F8B8309B68002B9F
:1042980003D0D7F8B80005F088F9D7F8B80005F0CA
:1042A8005BF8D7F8B8306833184605F026FB494B59
:1042B8009B68D7F8B8209A420FD1EFF30583C7F867
:1042C8009C30D7F89C30002B14BF01230023DBB2AD
:1042D800002B02D0012387F8B6300123C7F89830A5
:1042E8003D4BC7F894300023C7F89030D7F89400B6
:1042F80004F07EFFC7F88C00D7F88C30002B03D071
:10430800D7F88C30C7F89030D7F8903000BFC7F88E
:104318008830D7F88830002B02D12E4BDB6801E0BB
:10432800D7F88830C7F88430D7F88430C7F8803099
:10433800D7F89830FB67FB6F002B01D0012324E0EE
:10434800244B9B68184605F02EF80346002B01D035
:1043580001231AE01F4B9B68184605F00AF803462C
:10436800002B06D1D7F8800005F013F80346002B80
:1043780001D0012309E0D7F8800005F028F80346AA
:10438800002B01D0012300E00023002B12D0114B99
:104398009B68D7F884209A4203D0D7F8840000F0AD
:1043A8003DF9D7F8840005F05EF90A4AD7F8843059
:1043B800D36103E0074B9B68064AD36100BF97F8B7
:1043C800B730102B0AD1D7F8B80005F043F914E03C
:1043D800AC0700305000003070000030D7F8B8004B
:1043E80000F0D0F997F8B630002B02D04848FEF715
:1043F80011FFD7F8B80005F02DF9464B9B68D7F8A0
:10440800D4209A425AD1EFF30583BB67BB6F002BC8
:1044180014BF01230023DBB283F00103DBB2002BBE
:104428004CD0D7F8D40005F095F80346002B39D0C6
:10443800394B7B67BB6AFB61FB693B673B6FFB667C
:10444800FB6E83F3118800BFBFF36F8F00BF00BFFF
:1044580000BF0023BB66BB6E7B667B6E83F311884F
:1044680000BFBFF36F8F00BF00BF0423184602DFF1
:10447800294B3B66EFF31183FB65FB6DBB6520237E
:104488007B657B6D83F3128800BFBFF36F8F00BF1E
:10449800BB6DBB613B6E3B6500BF3B6EFB6400BF01
:1044A800BB69BB621C4BBB64BB6A3B62BB6C7B6475
:1044B80000BF3B6A1846FEF7EFFE10E0164B3B6460
:1044C800BB6A7B627B6AFB63FB6BBB63BB6B83F37F
:1044D800118800BFBFF36F8F00BF00BF00BF00BFD0
:1044E80097F8FF30002B0ED000237B637B6B3B6378
:1044F8003B6B83F3118800BFBFF36F8F00BF00BF12
:104508000423184602DF07F58077BD4680BD00BF4B
:104518001002003050000030AC07003080B483B087
:1045280000AF78607B68054A93420CBF01230023E3
:10453800DBB218460C37BD4680BC704750010030CE
:1045480080B485B000AF7860044B1B68FB60FB68E3
:1045580018461437BD4680BC704700BFAC07003012
:1045680080B584B000AF7860786805F0EDF903464F
:10457800002B29D07868FFF7E3FF0346002B23D0F0
:104588007B6893F90E301A46154B1B68194610467E
:1045980005F00FFA034683F00103DBB2002B13D0BA
:1045A800786805F0E1F9034683F00103DBB2002BDC
:1045B8000AD07868FFF7B2FF034683F00103DBB245
:1045C800002B01D0012300E00023FB73FB7B03F0E9
:1045D8000103FB73FB7B18461037BD4680BD00BF47
:1045E800B007003080B485B000AF78607B68084AB7
:1045F8009B1ADB10074A02FB03F3FB60064AFB68C1
:10460800134401221A7000BF1437BD4680BC70479E
:10461800D0020030ABAAAAAAB40700302DE9904313
:1046280085B000AF7860194B1B7CFB60FA681346B5
:104638005B001344DB00164A1344184600F048FA9E
:10464800144AFB68134400221A707868FFF788FF41
:104658000346002B14D0FA6813465B001344DB00B2
:104668000B4A9C187868FFF76BFF0346013BDA1783
:104678009846914642464B460749204600F030F995
:1046880000BF1437BD46BDE8908300BF500000301E
:10469800D0020030B4070030ED45000180B592B07B
:1046A80000AF344B3B64EFF31183FB63FB6BBB63DD
:1046B80020237B637B6B83F3128800BFBFF36F8F6C
:1046C80000BFBB6B7B603B6C3B6300BF3B6CFB621A
:1046D80000BF7B683B61284B9B687B64274B1B684A
:1046E8007A6C9A4213D1786CFFF798FF214BBB6222
:1046F8003B69BB60BB687B627B6A3B623B6A83F356
:10470800118800BFBFF36F8F00BF00BF2FE01B4BA6
:1047180000221A60184B1B7C1A46194B9B5C002B15
:1047280014D0786CFFF71CFF0346002B0ED0786C72
:1047380005F01AF9034683F00103DBB2002B02D01F
:10474800786CFEF7DBFD786CFFF768FF094BFB61BF
:104758003B69FB60FB68BB61BB697B617B6983F379
:10476800118800BFBFF36F8F00BF00BF00BF48377D
:10477800BD4680BDAC07003050000030B80700309F
:10478800B407003080B491B000AF78602A4BBB63A7
:10479800EFF311837B637B6B3B632023FB62FB6A34
:1047A80083F3128800BFBFF36F8F00BF3B6BFB60C2
:1047B800BB6BBB6200BFBB6B7B6200BFFB687B61EE
:1047C8001E4B9B6A7A689A4206D11C4B9B6AD3F8A7
:1047D80080301A4A936219E0184B9B6AFB6303E026
:1047E800FB6BD3F88030FB63FB6B002B05D0FB6BB6
:1047F800D3F880307A689A42F2D1FB6B002B05D04F
:104808007B68D3F88020FB6BC3F880200A4B3B629F
:104818007B693B613B69FB61FB69BB61BB6983F3F6
:10482800118800BFBFF36F8F00BF00BF00BF00BF7C
:104838004437BD4680BC7047BC070030500000308C
:1048480080B500AF084A094BD31A1A4608490748E9
:1048580004F068FB074A084BD31A1A46074906486A
:1048680004F060FB00BF80BD4E0000300000003047
:1048780070AD0001000000300000003070AD000194
:1048880080B582B000AF044805F0D1F878607B6845
:1048980018460837BD4680BD4000003080B584B05A
:1048A80000AF78607B681946044805F0E5F8F860C1
:1048B800FB6818461037BD4680BD00BF4000003079
:1048C80080B500AF054B1B68002B03D1FEF77AF8C3
:1048D800034600E00023184680BD00BFBC07003037
:1048E8002DE9B04FA0B000AF78633963C7E90A2358
:1048F800D7E90A014FF0FF324FF0FF33994208BF62
:10490800904200D1D8E07A6B3B6B93600023BB6484
:104918006B4BFB66EFF31183BB66BB6E7B66202394
:104928003B663B6E83F3128800BFBFF36F8F00BFF7
:104938007B6EFB63FB6EFB6500BFFB6EBB6500BF58
:10494800FB6B7B64B4E0D7E90A236FF001004FF0FA
:10495800FF31801A386261EB03037B627B6A002BAC
:1049680024DBD7E90A2310461946564BD3E900231E
:10497800841841EB03056FF001024FF0FF33121B5F
:10498800BA6163EB0503FB61D7E90623C7E91C237A
:10499800D7E91C23012A73F1000103DA4FF0010261
:1049A8004FF00003796BC1E9042316E0D7E90A2325
:1049B80012F1010843F10009FFF782FF0346DA17F5
:1049C8009A46934618EB0A033B6149EB0B037B615C
:1049D8007B6BD7E90412C3E90412FFF751FFF867AC
:1049E80037E0FB6FD3E904017B6BD3E904238242F0
:1049F8008B4118DAFB6FD3E904017B6BD3E90423FD
:104A0800B0EB020CC7F808C061EB0303FB60FB6F57
:104A1800D7E90212C3E90412FA6F7B6B19461046F4
:104A280005F056F818E07B6BD3E90401FB6FD3E976
:104A38000423B0EB020CC7F800C061EB03037B60F2
:104A48007B6BD7E90012C3E90412F86FFFF726FF62
:104A5800F867FB6F002BC4D1FB6F002B04D17B6B75
:104A68001946194805F01BF8FFF70AFF02467B6B49
:104A780093420AD1154B1B68002B06D105F078F834
:104A8800034600211846FDF7C1FE0D4B7B657B6C84
:104A98003B643B6C3B653B6DFB64FB6C83F31188AB
:104AA80000BFBFF36F8F00BF00BF00BF0123BB640F
:104AB800BB6C002B3FF447AF8037BD46BDE8B08FD5
:104AC800BC070030E802003040000030BC0700306E
:104AD80080B592B000AF78606FF015037B64002357
:104AE800BB612B4BFB63EFF31183BB63BB6B7B6336
:104AF80020233B633B6B83F3128800BFBFF36F8FA8
:104B080000BF7B6BFB60FB6BFB6200BFFB6BBB6298
:104B180000BFFB687B6133E07B68184604F066FFE2
:104B28000346002B19D0FFF7ABFE02467B68934281
:104B38000CBF0123002387F84330786804F0F8FF9E
:104B480000237B6497F84330002B06D005F010F85B
:104B5800034600211846FDF759FE0D4B7B627B6921
:104B68003B613B693B623B6AFB61FB6983F31188EC
:104B780000BFBFF36F8F00BF00BF00BF0123BB6141
:104B8800BB69002BC8D07B6C18464837BD4680BD32
:104B9800BC0700302DE9B04FA4B000AF7862744B69
:104BA800C7F88430EFF31183C7F88030D7F8803026
:104BB800FB672023BB67BB6F83F3128800BFBFF37B
:104BC8006F8F00BFFB6F7B63D7F884307B6700BFB4
:104BD800D7F884303B6700BF7B6BFB63654A7B6A11
:104BE8001360FFF74DFEC7F88C0061E0D7F88C30F2
:104BF800D3E904231346C7F88830D7F88830DA1782
:104C08009A4693465C4BD3E900231AEB0201B9613B
:104C18004BEB0303FB61584BD7E90612C3E90012BB
:104C2800D7F88C104FF000024FF00003C1E90423BD
:104C3800D7F88C0004F07CFF4D4B7B65FB6B3B6326
:104C48003B6B3B653B6DFB64FB6C83F3118800BFDA
:104C5800BFF36F8F00BF00BF00BFD7F88C309B68D1
:104C6800D7F88C009847424BFB66EFF31183BB667D
:104C7800BB6E7B6620233B663B6E83F3128800BFC6
:104C8800BFF36F8F00BF7B6EFB62FB6EFB6500BFDF
:104C9800FB6EBB6500BFFB6AFB63364B1A68D7F82F
:104CA8008830D21A334B1A60FFF7EAFDC7F88C0038
:104CB800D7F88C30002B0ED0D7F88C30D3E904010C
:104CC8002C4B1B68DA173B617A61D7E904239446B9
:104CD80084458B418ADAD7F88C30002B14D0D7F86A
:104CE8008C30D3E9042323490968C81788468146CC
:104CF800B2EB0801B96063EB0903FB60D7F88C30AD
:104D0800D7E90212C3E904121A4B1B68DA171C46CA
:104D18001546194BD3E90023A118396045EB030365
:104D28007B60154BD7E90012C3E90012114B002232
:104D38001A6004F01DFF034600211846FDF766FDC2
:104D48000B4BBB64FB6BBB63BB6B7B647B6C3B64D7
:104D58003B6C83F3118800BFBFF36F8F00BF00BFA8
:104D680000BFFFF79BFC9037BD46BDE8B08F00BF82
:104D7800BC070030BC070030E80200302DE9B04322
:104D880090B000AF4FF000024FF00003C7E90E23C8
:104D980000233B61234B7B63EFF311833B633B6B46
:104DA800FB622023BB62BB6A83F3128800BFBFF398
:104DB8006F8F00BFFB6A7B607B6B7B6200BF7B6B86
:104DC8003B6200BF7B68FB6021E0FFF779FD03468B
:104DD800DA171C461546144BD3E9002314EB0208D6
:104DE80045EB0309C7E90E890E4BFB61FB68BB6005
:104DF800BB68BB61BB697B617B6983F3118800BFBA
:104E0800BFF36F8F00BF00BF00BF01233B613B6949
:104E1800002BDAD0D7E90E23104619464037BD4695
:104E2800BDE8B083BC070030E802003080B582B02E
:104E380000AF786004F0F1FE0346034A536100BFF7
:104E48000837BD4680BD00BF5000003080B590B027
:104E580000AF284B3B63EFF31183FB62FB6ABB6235
:104E680020237B627B6A83F3128800BFBFF36F8FB6
:104E780000BFBB6A7B603B6B3B6200BF3B6BFB6167
:104E880000BF7B68FB601C4BFB63FB6B5B69BB6310
:104E9800BB6B002B15D004F0C0FE0246BB6BD31AC7
:104EA8007B63FB6B9B6893F83830002B05D0FB6B5A
:104EB8009B68796B184604F0EBFE796BF86B04F08D
:104EC800BCFEFB6B00225A610A4BBB61FB68BB60EE
:104ED800BB687B617B693B613B6983F3118800BFD9
:104EE800BFF36F8F00BF00BF00BF00BF4037BD4694
:104EF80080BD00BFC00700305000003080B500AF53
:104F0800024801F02FFC00BF80BD00BFA4AB000128
:104F180080B582B000AF78603960054B1B683A688D
:104F28000121786805F0B3FA00BF0837BD4680BD97
:104F3800FCAC000180B500AF08210248FFF7E8FF8C
:104F480000BF80BDD4AB000180B500AF0721024887
:104F5800FFF7DEFF00BF80BDE0AB000180B58AB07F
:104F680002AF7860396007F10C007B6800933B68FA
:104F7800074A102100F0A0FDF861FA6907F10C0357
:104F880011461846FFF7C4FF00BF2037BD4680BD55
:104F9800E8AB000180B596B002AF0346FB710B4643
:104FA800BB7113467B710023FB647B7903F001031B
:104FB800002B0ED0FB6C07F10C02D018FB6CC3F170
:104FC80040031E4A194600F077FD0246FB6C134465
:104FD800FB647B7903F00203002B0ED0FB6C07F116
:104FE8000C02D018FB6CC3F14003154A194600F0B7
:104FF80063FD0246FB6C1344FB64FB6C07F10C0277
:10500800D018FB6CC3F14001FB7903F11E02BB7998
:105018002833009313460B4A00F04EFD0246FB6C02
:105028001344FB64FA6C07F10C0311461846FFF7AA
:105038006FFF00BF5037BD4680BD00BFF4AB000115
:10504800FCAB000104AC000180B500AF04210248AC
:10505800FFF75EFF00BF80BD10AC000180B58EB0C9
:1050680000AFF860B9607A603B603A4BBB623A4B7C
:105078007B623A4B3B623A4BFB613A4BBB613A4B22
:105088007B61B968F868FFF769FFB86A04F01AFE2F
:1050980000237B6305E0B86904F014FE7B6B0133E1
:1050A8007B637B68023B7A6B9A42F4DB786A04F094
:1050B80009FE3B6C002B0BD07B68042B08DDFB68DA
:1050C8000233B9681846FFF749FF386C04F0FAFD57
:1050D80001233B6319E0BA683B6B13441946F8682F
:1050E800FFF73CFF786904F0EDFDFA687B6813442C
:1050F800581EBA683B6B13441946FFF72FFF7869AF
:1051080004F0E0FD3B6B01333B633B68013B3A6BCA
:105118009A42E0DBBA683B681344013B1946F868D9
:10512800FFF71CFF386A04F0CDFD0023FB6205E0A1
:10513800B86904F0C7FDFB6A0133FB627B68023B78
:10514800FA6A9A42F4DBF86904F0BCFD00BF38370C
:10515800BD4680BD18AC00011CAC000120AC0001AC
:1051680024AC000128AC00012CAC000180B582B051
:1051780000AF7860094A7B681360084B1B680022FF
:105188000749184604F04DFE044B1B68184604F006
:1051980066FE00BF0837BD4680BD00BFC0070030AF
:1051A800AD9E000180B483B000AF0346FB715E4B37
:1051B8001B68002B40F0B2805C4B1B78052B00F27B
:1051C800AE8001A252F823F0E9510001115200010A
:1051D8003F520001B7520001C5520001D3520001ED
:1051E800FB791B2B03D1514B01221A7097E0504BCE
:1051F80000221A704E4AFB7913714D4B00229A60B7
:10520800494B01221A608AE0FB795B2B03D1474B9B
:1052180002221A7083E0464B00221A70444B1B226C
:105228001A71434B00229A603F4B01221A603F4B90
:1052380000221A7073E0FB794D2B03D13B4B0322FC
:105248001A706CE03A4B01221A70394B00221A711D
:10525800FB79413B032B1FD801A252F823F000BF72
:1052680079520001835200018D52000197520001CA
:105278002F4B40F2E9329A6012E02D4B40F2EA32AD
:105288009A600DE02A4B40F2EB329A6008E0284B16
:105298004FF47B729A6003E0254B00229A6000BFAE
:1052A800214B01221A60214B00221A7037E0214A53
:1052B800FB7913701D4B04221A7030E01D4AFB79EC
:1052C80053701A4B05221A7029E01A4AFB79937019
:1052D800174B02221A70174B1B7803F00303144A6A
:1052E800D360144B1B7803F00303032B14BF012373
:1052F8000023DBB21A460E4B1A610E4B5B78203B3B
:105308000B4A53600B4B9B78203B094A9360064B32
:1053180001221A60054B00221A7000E000BF0C370A
:10532800BD4680BC704700BFD8070030EC0700308E
:10533800C4070030DC070030B0B483B000AF786039
:105348000B4B1B68002B0CD07B680A4A1C46154681
:105358000FCD0FC42B682360054B00221A60012370
:1053680000E0002318460C37BD46B0BC704700BFAC
:10537800D8070030C407003080B483B000AF78602D
:105388000F4B1A687B681A620D4A7B6813607B684A
:105398000022DA617B6801229A740A4B1B68002B91
:1053A80006D1084A7B6813607B6801221A7402E000
:1053B8007B6800221A7400BF0C37BD4680BC70475A
:1053C800E0070030E407003080B582B000AF0F4B33
:1053D8001B687B6011E07B685B7C002B0AD07B68D4
:1053E8005B69002B06D07B685B69786898477B68A7
:1053F80000229A747B681B6A7B607B68002BEAD169
:1054080000BF00BF0837BD4680BD00BFE0070030C1
:1054180080B586B000AF78607B681B78022B51D1CD
:10542800344B1B687B614AE07B695B7C83F001033A
:10543800DBB2002B3FD17B685B683B617B689B6874
:10544800FB607B691B683A699A4235DB7B691A689D
:105458007B699B6813443A699A422DDA7B695B68D9
:10546800FA689A4228DB7B695A687B69DB681344CF
:10547800FA689A4220DA204B1B687A699A420DD062
:105488001D4B1B68002B03D01B4B1B6800221A7492
:10549800194A7B6913607B6901221A747B699B69CD
:1054A800002B04D07B699B697968786998477B6988
:1054B80001229A741BE000BF7B691B6A7B617B69D0
:1054C800002BB1D10C4B1B68002B10D00A4B1B686A
:1054D8009B69002B0BD0084B1B689B69064A126816
:1054E800796810469847044B1B6801229A7418374C
:1054F800BD4680BDE0070030E407003080B584B0C9
:1055080000AFF860B9607A603B60FB68BA681A60FF
:10551800FB687A685A60FB683A689A60FB68BA69FF
:10552800DA60FB6801225A74FB6801229A74FB68EE
:10553800FA699A62FB683A6ADA62FB68054A5A6154
:10554800FB68054A9A61F868FFF716FF00BF103735
:10555800BD4680BD039F0001919F000180B584B0C6
:1055680000AFF860B9607A603B60FB68BA681A609F
:10557800FB687A685A603868FAF7E4FD03461A4609
:10558800FB689A60FB680122DA60FB6801225A74A2
:10559800FB6801229A74FB683A689A62FB683A7E53
:1055A80083F83820FB683A7F83F83920FB6897F83E
:1055B800202083F83A20FB68054A5A61FB68054AAF
:1055C8009A61F868FFF7D8FE00BF1037BD4680BD66
:1055D80027A000016DA0000180B584B000AFF8607D
:1055E800B9607A603B60FB68BA681A60FB687A68E1
:1055F8005A60FB683A689A60FB68BA69DA60FB68C7
:10560800FA699A62FB6897F8202083F83820FB68CB
:1056180097F8242083F83920FB6897F8282083F826
:105628003A20FB6801225A74FB6801229A74FB68CD
:10563800054A5A61FB68054A9A61F868FFF79CFEBB
:1056480000BF1037BD4680BDE3A00001EFA10001F7
:1056580080B58CB000AF78603E4BFB613E4BBB61C0
:105668007B689B687B617B69023BFB62FB6A002B62
:1056780001DC0123FB627B681B6BFA6A03FB02F205
:105688007B685B6B92FBF3F3BB62BB6A002B01DAAE
:105698000023BB62BA6AFB6A9A4201DDFB6ABB62FD
:1056A8007B681A687B685B6819461046FFF756FCEA
:1056B8007B6893F838007B6893F839107B6893F817
:1056C8003A301A46FFF766FC244804F0FBFA002338
:1056D8007B6205E0F86904F0F5FA7B6A01337B62C6
:1056E8007A6ABB6A9A42F5DBBB6A3B6205E0B86935
:1056F80004F0E8FA3B6A01333B623A6AFB6A9A4271
:10570800F5DB174804F0DEFAFFF79EFC7B681B6B9D
:10571800642203FB02F27B685B6B92FBF3F33B6151
:1057280007F108003B690F4A082100F0C5F97B68BA
:105738001A687B691A447B685B6819461046FFF74C
:105748000DFC07F10803184604F0BCFA00BF303717
:10575800BD4680BD30AC000134AC000138AC00015E
:105768003CAC000140AC000180B584B000AFF860EB
:10577800B9607A603B60FB68BA681A60FB687A684F
:105788005A60FB683A689A60FB68BA69DA60FB6835
:10579800FA691A63FB683A6A5A63FB6897F8242027
:1057A80083F83820FB6897F8282083F83920FB68AD
:1057B80097F82C2083F83A20FB6801225A74FB687A
:1057C80001229A74FB68064A5A61FB68054A9A6185
:1057D800F868FFF7D1FD00BF1037BD4680BD00BF98
:1057E8005956000103A2000180B584B000AF78606B
:1057F800174BFB60174BBB607B681A687B685B685C
:1058080019461046FFF7AAFB7B6893F838007B68B7
:1058180093F839107B6893F83A301A46FFF7BAFBC9
:105828007B68DB6B002B01D0BB6800E0FB68184687
:1058380004F048FA084804F045FA7B689B6A184661
:1058480004F040FAFFF700FC00BF1037BD4680BDEA
:1058580048AC00014CAC000150AC000180B584B0EC
:1058680000AFF860B9607A603B60FB68BA681A609C
:10587800FB687A685A603868FAF764FC03460233B2
:105888001A46FB689A60FB680122DA60FB683A688E
:105898009A623A7EFB68DA63FB68FA691A64FB6805
:1058A800072283F83820FB68002283F83920FB6838
:1058B800002283F83A20FB6801225A74FB6801220F
:1058C8009A74FB68054A5A61FB68054A9A61F86848
:1058D800FFF752FD00BF1037BD4680BDF1570001EC
:1058E80053A2000180B584B002AF78603960082106
:1058F8001348FFF70DFB012204210720FFF74AFB9D
:105908007B6800930723282205210A20FFF7A6FBBE
:1059180008210C20FFF722FB386804F0D3F9FFF7C1
:1059280093FB0B210C20FFF719FB064804F0CAF97A
:1059380008210548FFF7ECFA00BF0837BD4680BDCF
:1059480054AC000160AC00017CAC000180B586B0AD
:1059580000AF7860204B3B61204BFB6000237B61EC
:1059680030E07B6818687B685A687B69134419467D
:10597800FFF7F4FA7B6893F838007B6893F83910DE
:105988007B6893F83A301A46FFF704FB7B68DB6CB8
:105998007A699A4201D13B6900E0FB68184604F035
:1059A80091F90F4804F08EF97B685A6C7B699B006B
:1059B80013441B68184604F085F9FFF745FB7B691B
:1059C80001337B617B689B6C7A699A42C9DB00BFB3
:1059D80000BF1837BD4680BD88AC00018CAC000103
:1059E80090AC000180B586B000AFF860B9607A600D
:1059F8003B60FB68BA681A60FB687A685A60FB68A3
:105A080003229A6000237B6116E07B699B003A6859
:105A180013441B681846FAF795FB03463B613B693C
:105A28005A1CFB689B689A4203DB3B699A1CFB681B
:105A38009A607B6901337B617A693B6A9A42E4DB4D
:105A4800FB683A6ADA60FB683A685A64FB683A6A43
:105A58009A647B6A002B05DB7A6A3B6A9A4201DA10
:105A68007B6A00E00023FA68D364FB68BA6A1A65A7
:105A7800FB68072283F83820FB68002283F8392066
:105A8800FB68002283F83A20FB6801225A74FB68FD
:105A980001229A74FB68064A5A61FB68054A9A61B2
:105AA800F868FFF769FC00BF1837BD4680BD00BF26
:105AB8005559000105A300010CB430B589B005465D
:105AC8000C461C22002101A804F0BDFC0223059508
