:020000040100F9
:10000000A0690030695E0001B15F0301555E000127
:10001000555E0001555E0001555E0001555E000110
:10002000000000000000000000000000AD5F0001C3
:10003000555E000100000000055F0001A5040101FC
:10004000D1620001D1620001D1620001D1620001E0
:10005000D1620001D1620001D1620001D1620001D0
:10006000D1620001D1620001D1620001D1620001C0
:10007000D1620001D1620001D1620001D1620001B0
:10008000D1620001D1620001D1620001D1620001A0
:10009000D1620001D1620001D1620001D162000190
:1000A000D1620001D1620001D1620001D162000180
:1000B000D1620001D1620001D1620001D162000170
:1000C000D1620001D1620001D1620001D162000160
:1000D000D1620001D1620001D1620001D162000150
:1000E000D1620001D1620001D1620001D162000140
:1000F000D1620001D1620001D1620001D162000130
:10010000D1620001D1620001D1620001D16200011F
:08011000D1620001D16200017F
:100118007BB972B90029BEBF00204FF0004106E04C
:1001280008BF00281CBF6FF000414FF0FF3000F0FF
:1001380057B8ADF1080C6DE904CE002909DB002B96
:100148001ADB00F057F8DDF804E0DDE9022304B01B
:100158007047404261EB4101002B1BDB00F04AF87D
:10016800DDF804E0DDE9022304B0404261EB41011F
:10017800524263EB43037047524263EB430300F080
:1001880039F8DDF804E0DDE9022304B0404261EB10
:1001980041017047524263EB430300F02BF8DDF84E
:1001A80004E0DDE9022304B0524263EB43037047E5
:1001B80053B94AB9002908BF00281CBF4FF0FF31C6
:1001C8004FF0FF3000F00CB8ADF1080C6DE904CE2B
:1001D80000F010F8DDF804E0DDE9022304B0704710
:1001E800704700BF034613F8012B002AFBD1181AE9
:1001F800013870472DE9F04786468C460846089E28
:10020800154674461946002B40F0C1808542B2FA63
:1002180082F245D94AB1C2F1200300FA02FC9540A6
:1002280094402EFA03F343EA0C0C4FEA154EA8B299
:10023800230CBCFBFEF80EFB18CC08FB00F943EAC4
:100248000C43994528D9EB1808F1FF3704D2994592
:1002580002D9A8F102072B44A3EB0903A4B2B3FB0C
:10026800FEFC0EFB1C330CFB00F044EA0344A042E6
:1002780014D92C190CF1FF3304D2A04202D9ACF1E5
:1002880002032C44241A43EA07401EB1D440002339
:1002980034607360BDE8F0874746DDE76346F1E701
:1002A80092BB431B01214FEA154EAFB2200CB3FBA2
:1002B800FEFC0EFB1C330CFB07F840EA0343984591
:1002C80061D9EB180CF1FF3004D2984502D9ACF192
:1002D80002002B44A3EB0803A4B2B3FBFEFC0EFB05
:1002E8001C330CFB07F744EA0344A7424DD92C19E9
:1002F8000CF1FF3304D2A74202D9ACF102032C441B
:10030800E41B43EA0040C0E7C2F120039540944053
:1003180020FA03F12EFA03F34FEA154E9040AFB2DC
:100328000343B1FBFEFC0EFB1C10190C0CFB07F879
:1003380041EA0041884522D969180CF1FF3004D2FE
:10034800884502D9ACF102002944A1EB08019BB20F
:10035800B1FBFEFC0EFB1C110CFB07F743EA014343
:100368009F420ED9EB180CF1FF3104D29F4202D9FB
:10037800ACF102012B44DB1B41EA004193E76046E4
:10038800E3E76146F7E76046A4E76346B8E78342D8
:1003980006D916B9002108467CE7C6E900E0F9E766
:1003A800B3FA83F78FB9834201D3724508D8BEEBFD
:1003B800020460EB030301209C461EB9002169E793
:1003C8003846FAE7C6E9004CF8E7C7F1200CBB400D
:1003D8000EFA07F522FA0CF42EFA0CF1BA401C4377
:1003E80020FA0CF3B8404FEA144901431FFA84FE7F
:1003F800B3FBF9F809FB18300B0C08FB0EFA43EABB
:1004080000439A4540D9E31808F1FF3004D29A45D1
:1004180002D9A8F102002344A3EB0A0389B2B3FB73
:10042800F9F809FB183308FB0EFE41EA03418E4533
:100438002CD9611808F1FF3304D28E4502D9A8F1EE
:100448000203214443EA0040A1EB0E01A0FB0298FD
:100458004145CE46434602D306D14D4504D2013824
:10046800B9EB020E68EB0403002EA7D0B5EB0E0221
:1004780061EB030101FA0CFC22FA07F3F9404CEA9C
:100488000303C6E9003199E74046C5E74346D9E783
:1004980008B50D4B48220021184655F017FE0346B3
:1004A8000A4AD2E90A01C3E90A0105A1D1E9000112
:1004B800C3E906014FF0FF301F21C3E90E0108BD53
:1004C800C05C4600000000FE381500308015003082
:1004D800314B2DE97043D3E9024618695D682F4B0B
:1004E80068B94FF000084FF00009C3E9108924B13A
:1004F8001A6CFDB942F030021A64BDE87083002C12
:100508003ED00FF28C09D9E90089C3E91089002D82
:10051800EDD0D3E9102142F0005242F08C021A6467
:100528001F4A126892F82220012A84BF41F4E07120
:100538005964DCE742F0706141F0700119641849B0
:10054800096891F82240012C82BF42F0F85242F02B
:1005580070021A641EB11A6C42F440021A64002830
:10056800CBD0D3E91021012C42F47F1242F440622F
:10057800C2D941F40F7141F00301C3E91021BCE76E
:100588004FF003084FF00009BFE700BFAFF300804A
:10059800033300C000000000B43E00308015003076
:1005A800443A003080B588B000AF0123FB7719F0DA
:1005B80025FB234BBB61B86932F06BF8034683F027
:1005C8000103DBB2002B35D1B86919F033FC1D48A3
:1005D80032F0A5F8034683F00103DBB2002B01D00B
:1005E800002329E04FF4D011164832F0F2F8786170
:1005F8007B69002B01DA00231EE00621124819F05E
:10060800EBFA1AF043FA00F00BFF034618461AF00B
:1006180049FA3B46184619F0F3FC0346002B05D06F
:100628003B46184619F06CFD19F046FD0A2032F0D9
:100638003CF8EEE700BF00BF18462037BD4680BD36
:100648000C69050118810501A06C050180B584B00D
:1006580000AF78601649174850F07DF8012304224E
:100668000321144850F088F8134B1B6B013B1946C3
:10067800114850F03FF9114B1B68FB60104B1B6889
:1006880001335A4203F0030302F0030258BF5342F6
:100698000B4A13600A4B1B6810333B4413F8043CA5
:1006A8001946084850F0E7FA00BF1037BD4680BD2C
:1006B800846D0501C01D0030C01E0030986D050115
:1006C800C4210030C020003080B582B000AF78600F
:1006D8000B46FB70FB78002B02D0084833F0AFF8CC
:1006E80078683BF04FF90346054A1360054832F035
:1006F800A8F800BF0837BD4680BD00BF9C6D050146
:10070800C02100308405003080B582B000AF786029
:100718000B46FB70094833F092F8094B1B68002B15
:1007280007D0074B1B68184609F00CFC044B002245
:100738001A6000BF0837BD4680BD00BFB06D050117
:10074800C0210030B0B58CB002AF78600B46FB70AA
:10075800002007F0A1FC78627B6A002B03D02C48AC
:1007680033F06DF851E02B4833F069F82A480AF065
:100778004FF92A4B07F10C041D460FCD0FC42B6807
:10078800236007F10C033B6201230093244B0322EF
:100798002449386A08F070FC78627B6A002B04D020
:1007A800796A214833F04BF82FE0204833F047F8B6
:1007B8004FF0FF324FF0FF331D4832F032F81D483A
:1007C80033F03DF814210A2019F02CFAFB78002B9D
:1007D80001D0194B00E0194B194619484FF0F3FDA9
:1007E800FB78002B08D0174917484FF0B4FF17497A
:1007F800174819F0EFFE08E0164913484FF0ABFF11
:100808001549164819F0E6FEFFE72837BD46B0BD82
:10081800C06D0501D86D0501D4010030346F0501A4
:100828000C820501F4810501F06D0501186E0501C2
:1008380084050030586E0501746E05017C6E050153
:10084800806E0501986E0501401E0030AC6E0501F2
:10085800D46E0501E86E0501FC6E0501206F0501E7
:1008680080B582B000AF786039601221042019F099
:10087800D9F9064A3B6852F82330194604484FF024
:10088800A2FD00BF0837BD4680BD00BF780100301B
:10089800486F050180B582B000AF786039601621D5
:1008A800122019F0BFF9064A3B6852F8233019465E
:1008B80004484FF088FD00BF0837BD4680BD00BF23
:1008C80088010030586F050180B588B006AF7860A0
:1008D800494B00931E2350220121012019F022FACE
:1008E800012302930423019307230093434B04221B
:1008F8000F21434819F0AAFC012302930423019312
:10090800032300933F4B18220E213F4819F09EFC09
:100918003E4B02933E4B019303230093142306227C
:1009280004213C4819F062FC3B4B02933B4B01937A
:1009380003230093142306221A21394819F056FC80
:10094800002304930023039306230293354B01935A
:100958000523009324230A220321334819F0B4FC09
:100968000023059300230493022303936423029333
:100978001E2301930123009326230F2204212B48D1
:1009880019F06AFD2A4B019300230093294B1B227F
:100998000C21294819F0DAFD254B01930023009317
:1009A800264B1C220C21264819F0D0FD254B02931A
:1009B8000123019304230093234B1322042123488A
:1009C80019F088FE02230093214B11222821214887
:1009D8001AF018F8204B03930A2302931F4B019334
:1009E8000C2300931923022234211D4819F09CFF7F
:1009F80000BF0837BD4680BD706F0501946F0501C3
:100A0800C01D00309C6F0501401E003055060001D6
:100A1800B86F0501401C003061280301C46F05014F
:100A2800C01C0030D46F0501401D0030C01E0030CE
:100A38004D0700013C700501401F00305070050152
:100A4800C01F0030690800017801003040200030E4
:100A580064700501C02000309D0800018801003045
:100A68004021003080B400AF024B1846BD465DF807
:100A7800047B7047F401003080B582B000AF786025
:100A8800034832F08DF800BF0837BD4680BD00BF6F
:100A98001482050180B582B002AF4FF4D0110F481F
:100AA80031F07AFF0D4831F01DFF034683F0010352
:100AB800DBB2002B00D00EE041F288304FF000018D
:100AC80041F288324FF00003CDE9002302460B467D
:100AD800034831F0E9FEBD4680BD00BF1482050120
:100AE800C804003080B582B000AF304B1B684FF4AB
:100AF80000320821184632F064F878607B68002BD1
:100B080001D07B684EE0294B1B684FF480320721E7
:100B1800184632F056F878607B68002B01D07B6865
:100B280040E0224B1B6801220821184631F0FAFFE9
:100B380078607B68002B01D07B6833E04FF064005D
:100B48004FF0000131F0A2FE184B1B680721184630
:100B580031F0A0FF38603B68012B02D06FF004032E
:100B680020E0124B1B6800220821184631F0DAFFFA
:100B780078607B68002B01D07B6813E04FF064003D
:100B88004FF0000131F082FE084B1B680721184620
:100B980031F080FF38603B68002B02D06FF004030F
:100BA80000E0002318460837BD4680BD000200302B
:100BB80080B582B000AF7860074B1B780133DAB29A
:100BC800054B1A7000F02CFC0346184619F06AFF12
:100BD80000BF0837BD4680BD6E4B003080B582B07F
:100BE80000AF7860074B1B78013BDAB2054B1A70EF
:100BF80000F016FC0346184619F054FF00BF0837EA
:100C0800BD4680BD6E4B003080B582B000AF7860C5
:100C1800124831F05CFE124B00221A70114B002270
:100C28001A70114B00221A70104B00221A70104BC8
:100C380000221A700F4B00221A700F4B00221A70F4
:100C48000E4B00221A70FFF70DFF0346184619F0E5
:100C580029FF00BF0837BD4680BD00BFC80400306B
:100C68006E4B00306F4B0030704B0030714B0030D2
:100C7800724B0030734B0030744B0030754B0030B2
:100C880080B582B000AF78600B46FB707B68314A54
:100C9800934208D1FB78002B14BF01230023DAB25A
:100CA8002D4B1A704CE07B682C4A934208D1FB7894
:100CB800002B14BF01230023DAB2294B1A703FE03E
:100CC8007B68284A934208D1FB78002B14BF012384
:100CD8000023DAB2244B1A7032E07B68234A93422D
:100CE80008D1FB78002B14BF01230023DAB2204B74
:100CF8001A7025E07B681F4A934208D1FB78002BC5
:100D080014BF01230023DAB21B4B1A7018E07B686A
:100D18001A4A934208D1FB78002B14BF0123002301
:100D2800DAB2174B1A700BE07B68164A934207D168
:100D3800FB78002B14BF01230023DAB2124B1A7080
:100D480000F06EFB0346184619F0ACFE00BF0837EA
:100D5800BD4680BDC82400306F4B003048250030A8
:100D6800704B0030C8250030714B003048260030E9
:100D7800724B0030C8260030734B0030C827003053
:100D8800754B003048270030744B003080B58CB06C
:100D980006AF7860A44831F09AFDA44B00931E2357
:100DA80050220121012018F0BDFFA14B1B7801330F
:100DB8000022059200220492022203920722029244
:100DC80001930123009328231A220521994819F039
:100DD80043FB974B1B78062B00F2128301A252F8B3
:100DE80023F000BF090E00016B0E0001E50E0001A3
:100DF80017110001E31100015D1200011513000134
:100E08008B4B1B7801338C4A40218C4830F0F2FA26
:100E1800012302930423019307230093874B0322A2
:100E28000521874819F012FA00230493002303933D
:100E380006230293834B019305230093462305223F
:100E48000521814819F040FA804B0293804B0193A9
:100E5800032300930C23192242217E4819F0C6F976
:100E6800D8E2734B1B7801337B4A4021734830F03A
:100E7800C1FA0123029304230193072300936F4BC4
:100E8800032205216E4819F0E1F900230493002399
:100E9800039306230293714B01930823009346237F
:100EA80005220521684819F00FFA6D4B02936D4B26
:100EB8000193032300930C23192234216A4819F063
:100EC80095F9624B0293624B0193032300930C2321
:100ED800192242215F4819F089F99BE2544B1B788B
:100EE8000133624A4021554830F084FA01230293C5
:100EF8000423019307230093504B032205215048F4
:100F080019F0A4F900230493002303930623029302
:100F1800574B0193032300934623052205214A4892
:100F280019F0D2F90A23FB60524B1B781A46524B30
:100F380001930092514BFA680721514819F006FBBA
:100F4800FB689A1C4F4B1B7819464B4B0193009139
:100F58004D4B07214D4819F0F9FAFB681A1D4C4B07
:100F68001B781946444B019300914A4B07214A4884
:100F780019F0ECFAFB689A1D484B1B7819463E4B52
:100F880001930091464B0721464819F0DFFAFB68A8
:100F980003F10802444B1B781946374B0193009123
:100FA800424B0721424819F0D1FAFB6803F10A02C3
:100FB800404B1B781946304B019300913E4B07215B
:100FC8003E4819F0C3FAFB6803F10A0204230093B0
:100FD8003B4B05213B4819F015FD214B0293214B52
:100FE8000193032300930C23192234211E4819F07E
:100FF800FDF8204B1B78002B66D0224B1B78002B6A
:1010080062D0294B1B78002B5ED0214B1B78002B1C
:101018005AD0224B1B78002B56D0264B1B78002B1E
:1010280052D0012351E000BFC8040030747005019C
:101038006E4B0030C8220030887005014829003006
:10104800C8210030A070050148220030B90B00010A
:101058002471050148230030307105014C710501E8
:10106800E50B000108720501C82300301472050160
:101078002C7205016F4B0030890C0001B872050114
:10108800C8240030704B0030DC7205014825003060
:10109800724B00300473050148260030734B003052
:1010A80030730501C8260030714B003058730501B4
:1010B800C8250030754B003084730501C8270030FF
:1010C800B8730501482800300023FB74FB7C03F04B
:1010D8000103FB74FB7C002B0CD0AB4B0293AB4B96
:1010E8000193032300930C2319224221A84819F0E5
:1010F8007DF88FE100230293A64B0193032300930D
:101108000C2319224221A24819F070F882E1A24B5F
:101118001B780133A14A4021A14830F06BF9012323
:10112800029304230193072300939D4B0322052177
:101138009C4819F08BF8002304930023039306239B
:101148000293994B0193032300934623052205211B
:10115800964819F0B9F8FFF79DFC954B1B781A468D
:10116800944B01930092944B0A220721934819F05B
:10117800EDF902230093924B0A220521914819F0B8
:1011880041FC914B0293914B0193032300930C2351
:10119800192234218E4819F029F8854B1B78FB74E5
:1011A800FB7C002B0CD0784B0293784B01930323E4
:1011B80000930C2319224221754819F017F829E1E8
:1011C80000230293734B0193032300930C231922EA
:1011D80042216F4819F00AF81CE16F4B1B78013364
:1011E8007C4A40216E4830F005F90123029304231C
:1011F8000193072300936A4B03220521694819F0DC
:1012080025F8002304930023039306230293724BCB
:10121800019303230093462305220521634819F00F
:1012280053F8694B0293694B0193032300930C23F2
:1012380019223421664818F0D9FF534B0293534BB7
:101248000193032300930C2319224221504818F0DC
:10125800CDFFDFE0504B1B7801335E4A40215048F8
:1012680030F0C8F801230293042301930723009365
:101278004B4B032205214B4818F0E8FF0023049349
:101288000023039306230293544B019303230093F3
:10129800462305220521454819F016F8FFF722FCD8
:1012A80078617B69002B0CD1012302930023019301
:1012B800022300934A4B0A2207214A4818F0C6FF26
:1012C8000BE0012302930023019301230093464B73
:1012D8000A220721434818F0B9FF3B4B02933B4BC6
:1012E8000193032300930C2319223421384818F062
:1012F8007DFF254B0293254B0193032300930C2379
:1013080019224221224818F071FF83E0224B1B78F2
:101318000133364A4021224830F06CF80123029309
:1013280004230193072300931D4B032205211D4825
:1013380018F08CFF002304930023039306230293E1
:101348002B4B0193032300934623052205211748BD
:1013580018F0BAFF1C4B02931C4B01930323009314
:101368000C23192234211A4818F040FF214B02930C
:10137800214B0193032300930C23192242211F4878
:1013880018F034FF46E000BFB90B000124710501D5
:1013980048230030BC7305016E4B0030C47305014F
:1013A80048290030C8210030D87305014822003090
:1013B800744B0030890C000128740501482700305F
:1013C800B873050148280030E50B000108720501D3
:1013D800C8230030507405016474050100750501C7
:1013E80020750501C82800303475050148750501C8
:1013F8005C750501110C0001B07505014824003029
:10140800064B00221A7000F00BF80346184619F034
:1014180049FB00BF00BF1837BD4680BD6E4B00308A
:1014280080B400AF024B1846BD465DF8047B704798
:101438000402003080B586B004AF7860114B009389
:101448001E2350220121012018F06CFC0023029376
:1014580000230193072300930B4B0A221C210B48FE
:1014680018F0F4FE0A4B02930A4B019303230093EE
:1014780014230F221E21084818F0B8FE00BF0837B1
:10148800BD4680BDBC750501C875050188290030B9
:101498005F2C0301E8750501082A003080B400AF0D
:1014A800024B1846BD465DF8047B704710020030B9
:1014B80080B483B000AF7860044A7B68136000BFD3
:1014C8000C37BD465DF8047B704700BF1C02003036
:1014D80080B582B000AF78603960044B1B687868CB
:1014E8009847034618460837BD4680BD1C020030A1
:1014F80080B58CB000AF7860396032F04CF90346A3
:10150800002B1BD007F11C0300221A605A609A6056
:10151800DA601A610223BB77134B3B6207F11C03A5
:101528003A687968184630F02BF8FB6A002B17D018
:1015380007F11C03184632F04EF911E007F10C03CD
:1015480000221A605A609A60DA600223BB73074B64
:101558003B6107F10C033A687968184630F010F8D7
:101568003037BD4680BD00BF07380301D9140001DC
:1015780080B584B000AF786039600023FB600AE072
:10158800094B1B687968FA680A441278104698472C
:10159800FB680133FB60FA683B689A42F0D300BFEE
:1015A80000BF1037BD4680BD1C02003080B500AFBB
:1015B80055F034F90346024A9B58184680BD00BFCF
:1015C8000800000080B584B000AFF860B9607A60A8
:1015D8003B6032F046F9024655F020F903460649C9
:1015E8005A50FB683A687968B8689847FFF7DEFF91
:1015F8000346184632F03CF90800000080B483B076
:1016080000AF78607B68044A1A60012318460C37DB
:10161800BD465DF8047B70475482050180B485B0EF
:1016280000AF4FF0A0439B6803F46063BB60BB68E6
:10163800B3F5606F34D0BB68B3F5606F33D8BB685F
:10164800B3F5406F28D0BB68B3F5406F2BD8BB68A3
:10165800B3F5206F1CD0BB68B3F5206F23D8BB68E7
:10166800B3F5C06F11D0BB68B3F5C06F1BD8BB68AA
:10167800002B04D0BB68B3F5806F03D013E0154B83
:10168800FB6013E0144BFB6010E0144BFB600DE0B3
:101698004FF4E103FB6009E04FF40043FB6005E011
:1016A8000F4BFB6002E00B4BFB6000BF4FF0A04309
:1016B8009B689B0903F007037B60FA687B6822FA42
:1016C80003F3084A136000BF1437BD465DF8047B76
:1016D800704700BF80F0FA020048E801B8FF010037
:1016E800C0687804200200302DE9B04386B000AF0E
:1016F80078603649896879613449096821F480310C
:10170800334801603149096801F00101002911D10C
:101718002E496FF07F4048602C496FF07F40886009
:101728002A49052008606FF07F4179614FF0807188
:10173800396103E025494968013139617968002038
:10174800884681462349096800200A46034602FB69
:1017580009F008FB03F10144A8FB02454B191D469B
:101768001D4A4FF0000320462946FEF721FD024698
:101778000B461346FB60FA683B69B2FBF3F31A4663
:10178800164B1A60FB683A69B3FBF2F2396901FB40
:1017980002F29B1ABB60BA687B699A420CD30F4B62
:1017A8001B6801330D4A13607A69BB68D21A3B691A
:1017B80013440B4A136004E07A69BB68D31A084AD9
:1017C800136000BF1837BD46BDE8B08310E000E0E5
:1017D8008C2A00302002003040420F0024020030E2
:1017E800882A003080B582B000AF78603960104A2E
:1017F8003B6813600F4B1B68002B02DD6FF005037D
:1018080012E07B68002B01D100230DE07868FFF718
:101818006BFF084B1B68002B05DD074B1B68064A4E
:1018280043F002031360002318460837BD4680BD05
:10183800902A00302402003010E000E080B500AFAC
:10184800164B1B68002B0CDA154B1B68002B06D0B7
:10185800134B1B6800209847114B00221A60002385
:101868001AE00E4B1B68002B14D10E4B9A680E4BD6
:101878001B689A420ED800F019F8094B1B68002B18
:1018880006D0074B1B6800209847054B00221A60BA
:10189800002301E06FF00503184680BD24020030E4
:1018A800902A003010E000E0882A003080B500AFB0
:1018B8000A4B1B68002B07D0084B1B686FF00F0002
:1018C8009847064B00221A60054A064B1B681360AE
:1018D800054B4FF0FF321A6000BF80BD902A0030E0
:1018E80010E000E08C2A00302402003080B592B06D
:1018F80000AF7860396000237B644FF090533B64FD
:101908007B68002B02D14FF0FF33ECE04FF0905092
:1019180001F0B8FF10220021786854F0D7FB3B6C27
:101928001B68DB0BDAB27B681A703B6C1B68DA0D3C
:101938007B680133D2B21A703B6C04331B68DAB28D
:101948007B6802335200D2B21A707B68023319786E
:101958003B6C1B68DB0FDAB27B6802330A43D2B2F6
:101968001A703B6C04331B68DA097B680333D2B204
:101978001A703B6C04331B68DA0B7B680433D2B2F1
:101988001A703B6C04331B68DA0D7B680533D2B2DE
:101998001A703B6C08331B68DA0B7B680633D2B2CB
:1019A8001A703B6C08331B68DA0D7B680733D2B2B8
:1019B8001A703B6C0C331B68DAB27B680833520030
:1019C800D2B21A707B68083319783B6C08331B68ED
:1019D800DB0FDAB27B6808330A43D2B21A703B6C69
:1019E8000C331B68DA097B680933D2B21A703B6C76
:1019F8000C331B68DA0B7B680A33D2B21A703B6867
:101A0800002B5BD000233B6207F1240300221A60FD
:101A18005A609A603B6C0C331B68DB0DDAB23B688A
:101A28001A703B6C10331B68DA0B3B680133D2B277
:101A38001A702F4801F07EFF78647B6C002B05D06C
:101A48004FF0905001F04CFF7B6C4CE007F1200305
:101A58000021184601F0BAFF0423FB607B683B6154
:101A680007F130037B6100233B7600237B7600235C
:101A7800FB6107F10C03184601F088FF78647B6C62
:101A8800002B05D04FF0905001F02AFF7B6C2AE024
:101A980001F06AFF97F830203B6801331B789A42BF
:101AA80005D197F831203B681B789A4206D04FF051
:101AB800905001F015FF6FF0030314E03B6C0C33FA
:101AC8001B68DA0D7B680B33D2B21A703B6C10338B
:101AD8001B68DA0B7B680C33D2B21A704FF0905047
:101AE80001F0FEFE7B6C18464837BD4680BD00BF3E
:101AF8000050035080B582B000AF0346FB71FB79FC
:101B0800072B5ED801A252F823F000BF351B000155
:101B1800CB1B0001831B0001771B0001CB1B0001BD
:101B2800511B0001AF1B00016D1B00014FF0A043CA
:101B38009B684FF0A04243F4802393604FF080608D
:101B480031F05BFF03463EE04FF0A0439B684FF047
:101B5800A04243F4801393604FF0805031F04DFF62
:101B6800034630E01A4832F0A9FB03462BE04FF059
:101B7800005031F042FF034625E04FF0A0435B6F71
:101B88004FF0A04243F0110353674FF0A0439B6806
:101B98004FF0A04243F4803393604FF0807031F0EF
:101BA8002CFF03460FE04FF0A0439B684FF0A04284
:101BB80043F4003393604FF0007031F01EFF03468A
:101BC80001E06FF0020318460837BD4680BD00BF2C
:101BD8006482050180B584B000AF0346FB71002321
:101BE800FB604FF0A0439B6803F46063BB60FB7924
:101BF800072B00F2BE8001A252F823F0251C000139
:101C08007B1D0001D51C00011D1D00017B1D00016D
:101C1800691C0001331D0001B11C00014FF0A043F5
:101C28009B6803F48023002B11D14FF0A0439B68DD
:101C38004FF0A04243F4802393604FF0806031F06E
:101C4800DCFE0346002B02D06FF00903ADE04FF035
:101C5800A0439B684FF0A04223F4606393608BE03D
:101C68004FF0A0439B6803F48013002B11D14FF071
:101C7800A0439B684FF0A04243F4801393604FF059
:101C8800805031F0BAFE0346002B02D06FF00903F2
:101C98008BE04FF0A0439B6823F460634FF0A042B1
:101CA80043F42063936067E00720FFF723FFF860A1
:101CB800FB68002B01D0FB6877E04FF0A0439B68DE
:101CC8004FF0A04243F46063936055E04FF0A043A7
:101CD8009B6803F48033002B11D14FF0A0439B681D
:101CE8004FF0A04243F4803393604FF0807031F09E
:101CF80084FE0346002B02D06FF0090355E04FF035
:101D0800A0439B6823F460634FF0A04243F48063D0
:101D1800936031E04FF0A0439B6823F460634FF079
:101D2800A04243F4C063936026E04FF0A0439B6851
:101D380003F40033002B11D14FF0A0439B684FF000
:101D4800A04243F4003393604FF0007031F055FE29
:101D58000346002B02D06FF0090326E04FF0A043A2
:101D68009B6823F460634FF0A04243F440639360A0
:101D780002E06FF0020318E04FF4005031F03DFE2E
:101D88000346002B0ED04FF0A0439B6823F46062FB
:101D9800BB6803F460634FF0A04113438B606FF09E
:101DA800090302E0FFF73AFC002318461037BD4646
:101DB80080BD00BF80B483B000AF03463960FB71BB
:101DC8000F4B9B6A23F00602FB790D4913438B6284
:101DD8000B4A3B68D3620A4B1B6A094A43F0020369
:101DE8001362074B0222DA61054B9B6A044A43F0EF
:101DF8000103936200BF0C37BD465DF8047B704752
:101E0800000800502DE9F04F89B000AF314BDB6975
:101E180003F00203002B01D1002356E02D4B5B6B2E
:101E2800002298469146C7E904894FF000024FF016
:101E38000003C7E902237B695E01FE60FE683B6917
:101E480046EAD366FE603B695B01BB60D7E90223C3
:101E5800C7E904231346B3EB08047B6963EB090560
:101E68004FF000024FF00003AB0143EA9463A20174
:101E7800101B63EB05014FF000024FF00003CB008D
:101E880043EA5073C2001046194610EB080A41EBAA
:101E9800090B4FF000024FF000034FEACB2343EA4F
:101EA8005A534FEACA2292469B4650465946094B16
:101EB8001B6B00223B607A60D7E90023FEF778F9B4
:101EC80002460B46C7E90623BB6918462437BD46B8
:101ED800BDE8F08F0008005080B582B000AF03461F
:101EE8003960FB71FB7939681846FFF763FF00BF5B
:101EF800064BDB6903F00203002BF9D0FFF782FFE2
:101F0800034618460837BD4680BD00BF000800508C
:101F180080B500AF024831F0FFFD00BF80BD00BFB3
:101F280000A0025080B483B000AF78600C4BDB6B2C
:101F380023F01F027B6803F01F0309491343CB6397
:101F4800074B5B6C23F01F027B6803F01F030449F7
:101F580013434B6400BF0C37BD465DF8047B7047E4
:101F6800005400502DE9B04FA0B000AF7865786DEF
:101F780031F056FE974B1B68002B01D1002324E15A
:101F880007F15C0207F160031946786D31F06BFECA
:101F9800FA6D914B1B68D31A7B673A6E8F4B1B689F
:101FA800D31A3B673B6F00229A46934652465B46DC
:101FB8004FF000004FF00001590141EAD261500191
:101FC80002460B46B2EB0A0463EB0B054FF0000226
:101FD8004FF000036B0243EAD453620214461D46D5
:101FE80014EB0A0845EB0B094FF000024FF0000311
:101FF8004FEA891343EA98634FEA8812B2EB080163
:10200800396063EB09037B60D7E900120B4613EBD9
:102018000A03BB64134643EB0B03FB644FF0000257
:102028004FF00003D7E912452146CA0B294642EA78
:1020380041422946CB0BC7E91A230023BB67684BEB
:10204800DB6B03F01F03FB677B6F00223B647A6442
:10205800D7E91A23D7E9104521468A4229468B41F8
:1020680039D27B6F0022BB63FA63D7E91A23D7E919
:102078000E452146891A3963294661EB03037B63C0
:10208800584B1B680022BB62FA62D7E90A4523460F
:10209800D7E90C01024693422B460A46934107D3DF
:1020A800BB6E7A6FD31A4F4A13604F4AFB6F1360A7
:1020B800FB6F002B01D10123BB67FB6F013BFB6763
:1020C8004A4B1B68012B01D10123BB67474B4FF0DB
:1020D800FF321A604BE07B6F00223B627A62D7E9DD
:1020E8001A23D7E90845214691422946994139D210
:1020F8007B6F0022BB61FA61D7E91A23D7E906454D
:102108002146511A3961294663EB01037B61354B3E
:102118001B680022BB60FA60D7E902452346D7E96D
:102128000401024693422B460A46934107D3BA6EEE
:102138007B6FD31A2B4A13602B4AFB6F1360FB6F1C
:102148001F2B01D10123BB67FB6F0133FB67274BB3
:102158001B68B3F1FF3F01D10123BB67234B012269
:102168001A6004E0204AFB6F13600123BB67BB6F52
:10217800002B16D01C4B1B681846FFF7D3FE154BD7
:1021880000221A601A4B1B68002B08D0184B1B68DA
:102198007B66174B00221A607B6E0020984700234D
:1021A80013E0F86FFFF7BEFE0B4A0C49786D31F06B
:1021B8005AFD0F4B1B68002B05D07B6D1B6803F67F
:1021C800FF727B6D5A606FF0050318468037BD4675
:1021D800BDE8B08FA82A0030982A0030942A003031
:1021E80000540050A02A00309C2A0030A42A003055
:1021F800AC2A003080B483B000AF78600B467B8097
:102208007B6800221A617B680122DA607B681A69A0
:102218007B881A437B681A617B684FF0FF325A60EB
:10222800054B00221A60054B00221A6000BF0C37CC
:10223800BD465DF8047B7047B02A0030B42A0030F0
:1022480080B582B000AF78607B68002B43DB7B6889
:10225800032B40DC23497A6813469B0013449B00F8
:102268000B441B68002B36D001211F4831F038FB86
:102278000346002B02D06FF005032EE019497A6857
:1022880013469B0013449B000B4400221A60154917
:102298007A6813469B0013449B000B440C331B685D
:1022A80000221A600F497A6813469B0013449B006A
:1022B8000B440C3319680B487A6813469B00134487
:1022C8009B0003440C331B684A685A60064831F087
:1022D8002EFB002301E06FF0020318460837BD46C5
:1022E80080BD00BFB82A0030082B003080B582B00E
:1022F80000AF78607B680F4A934208D07B680E4A2B
:10230800934201D1002303E04FF0FF3300E00023A4
:10231800002B08D10B2031F0BDFB092031F017FB51
:1023280000BF002301E06FF0020318460837BD46DE
:1023380080BD00BF002004400020045080B586B056
:1023480000AFF860B9601346FB7100237B61FB683E
:102358001C4A934206D0FB681B4A934202D06FF096
:1023680002032BE0FB6805225A61FB79002B02D09F
:10237800012B05D008E0154B1B685B087B6106E064
:102388004FF4E1037B6102E06FF0020316E0BA68E4
:102398007969F86831F0FEFD38613B69002B0CDD86
:1023A800FB681B6843F40042FB681A6000BFFB68C7
:1023B8001B6803F40023002BF9D03B691846183733
:1023C800BD4680BD0020044000200450200200309B
:1023D80080B584B000AF78600B46FB700023FB73B8
:1023E8007B68114A934206D07B68104A934202D018
:1023F8006FF0020313E0FB78002B02D0012B05D00D
:1024080009E00021786800F087F807E00121786882
:1024180000F082F802E06FF0020300E0FB7B184650
:102428001037BD4680BD00BF002004400020045086
:1024380080B483B000AF78600B46FB70FB78042B48
:102448005FD801A252F823F065240001732400012B
:1024580099240001BF240001E52400017B681B6862
:1024680023F010027B681A604EE07B681B6843F01B
:1024780010027B681A607B681B6823F020027B6867
:102488001A607B681B6823F040027B681A603BE097
:102498007B681B6843F010027B681A607B681B68C6
:1024A80023F020027B681A607B681B6843F04002B7
:1024B8007B681A6028E07B681B6843F010027B6821
:1024C8001A607B681B6843F020027B681A607B688F
:1024D8001B6823F040027B681A6015E07B681B6864
:1024E80043F010027B681A607B681B6843F0200287
:1024F8007B681A607B681B6843F040027B681A603F
:1025080002E06FF0020300E0002318460C37BD46D6
:102518005DF8047B704700BF80B485B000AF786079
:102528000B46FB707B68244A934208D07B68234A99
:10253800934201D1002303E04FF0FF3300E0002372
:102548001F4AD35C002B01D000232EE07B681B6858
:1025580003F40043002B14BF01230023FB73FB7B10
:10256800002B05D07B681B6823F400427B681A6047
:102578007B681B6823F44032FB781B0403F4403368
:102588001A437B681A60FB7B002B0DD07B681B68A5
:1025980043F400427B681A6000E000BF7B681B6858
:1025A80003F40023002BF8D0002318461437BD4647
:1025B8005DF8047B704700BF0020044000200450F1
:1025C8000C2B003080B485B000AF7860134B1B78BB
:1025D800002B1CD10023FB6013E00023BB600AE042
:1025E8000F49FB685A01BB681344002241F82320B5
:1025F800BB680133BB60BB681F2BF1DDFB6801338F
:10260800FB60FB68002BE8DD044B01221A700023F5
:1026180018461437BD465DF8047B7047764B00308A
:10262800102B003080B400AF034B1B781846BD4612
:102638005DF8047B704700BF774B003080B485B0ED
:1026480000AF78600B46FB707B681B68FB60FB780B
:10265800042B7CD801A252F823F000BFA926000160
:10266800792600010B270001D9260001392700012E
:10267800FB68DA6A7B685B681A43FB68DA62FB68A6
:10268800DA6D7B685B68DB431A40FB68DA65FB68D8
:102698009A6A7B685B68DB431A40FB689A6259E078
:1026A800FB68DA6A7B685B68DB431A40FB68DA62BE
:1026B800FB68DA6D7B685B68DB431A40FB68DA65A8
:1026C800FB689A6A7B685B681A43FB689A6241E018
:1026D800FB68DA6A7B685B68DB431A40FB68DA628E
:1026E800FB68DA6D7B685B68DB431A40FB68DA6578
:1026F800FB689A6A7B685B68DB431A40FB689A62EE
:1027080028E0FB68DA6A7B685B681A43FB68DA6270
:10271800FB68DA6D7B685B68DB431A40FB68DA6547
:10272800FB689A6A7B685B681A43FB689A6211E0E7
:10273800FB68DA6D7B685B681A43FB68DA65FB68DF
:102748009A6A7B685B681A43FB689A6202E06FF0DA
:10275800020300E0002318461437BD465DF8047BE9
:10276800704700BF80B584B000AFF8600B467A6050
:10277800FB7231F0AEFE0346012B01D1002379E054
:10278800FB681A6B7B681A43FB681A63FB687A68F4
:102798005A60FB7A052B69D801A252F823F000BFD2
:1027A800C1270001E32700010528000121280001B5
:1027B8003D28000159280001FB687A685A61FB68C6
:1027C8007A685A60FB687A681A67FB687A68DA6719
:1027D800FB687A68C3F888204BE0FB687A681A615E
:1027E800FB687A685A60FB687A681A67FB687A68D7
:1027F800DA67FB687A68C3F888203AE0FB687A6889
:10280800C3F88820FB687A68DA67FB687A681A6711
:10281800FB687A689A602CE0FB687A68C3F88820BD
:10282800FB687A68DA67FB687A68DA66FB687A6850
:102838009A601EE0FB687A68C3F88820FB687A68AB
:102848009A67FB687A681A67FB687A689A6010E08A
:10285800FB687A68C3F88820FB687A689A67FB681F
:102868007A68DA66FB687A689A6002E06FF00203B9
:1028780000E0002318461037BD4680BD80B584B0FF
:1028880000AFF8600B467A60FB7231F022FE034617
:10289800012B01D1002368E0FB7A032B52D801A257
:1028A80052F823F0BD280001E328000107290001A0
:1028B8002B290001FB68D3F8B0207B68DB431A4062
:1028C800FB68C3F8B020FB68D3F8B4207B68DB430F
:1028D8001A40FB68C3F8B42046E0FB68D3F8B02080
:1028E8007B681A43FB68C3F8B020FB68D3F8B420B0
:1028F8007B68DB431A40FB68C3F8B42034E0FB680C
:10290800D3F8B0207B68DB431A40FB68C3F8B020DB
:10291800FB68D3F8B4207B681A43FB68C3F8B4207B
:1029280022E0FB68D3F8B0207B681A43FB68C3F841
:10293800B020FB68D3F8B4207B681A43FB68C3F85F
:10294800B42011E0FB68D3F8B0207B68DB431A4061
:10295800FB68C3F8B020FB68D3F8B4207B68DB437E
:102968001A40FB68C3F8B420002318461037BD4648
:1029780080BD00BF80B588B002AFF860B9607A60EA
:102988003B60FB681C4A934208D0FB681B4A934291
:1029980001D1002303E04FF0FF3300E000237B6107
:1029A8003B68042B02DD6FF0020321E07B69002BFA
:1029B80008D1134B1B685B087A6A9A4202D96FF0F8
:1029C800020315E07B69012B07D10D4B1B687A6A5E
:1029D8009A4202D96FF002030AE07B6A01933B6ACC
:1029E80000933B687A68B968F86800F03DF80346D8
:1029F80018461837BD4680BD00600440006004508A
:102A08002002003080B584B000AF78607B680C4A43
:102A1800934208D07B680B4A934201D1002303E01C
:102A28004FF0FF3300E00023FB60786800F004F902
:102A3800062030F08CFF002318461037BD4680BDB5
:102A4800006004400060045080B483B000AF786038
:102A5800044B1B689B0818460C37BD465DF8047B81
:102A6800704700BF2002003080B586B000AFF86024
:102A7800B9607A603B60FB686B4A934208D0FB6898
:102A88006A4A934201D1002303E04FF0FF3300E08C
:102A980000237B617B69002B02DA6FF00203BEE042
:102AA80063497A6913469B001344DB000B440022F8
:102AB8001A605F497A6913469B001344DB000B4494
:102AC800083300221A605A497A6913469B00134456
:102AD800DB000B440C3301221A6055497A6913460E
:102AE8009B001344DB000B44103300221A6050494A
:102AF8007A6913469B001344DB000B441C33002205
:102B08001A604B497A6913469B001344DB000B4457
:102B1800203300221A6046497A6913469B00134401
:102B2800DB000B4414336FF001021A6040497A69E4
:102B380013469B001344DB000B4418336FF001026B
:102B48001A603B497A6913469B001344DB000B4427
:102B5800273301221A70FB6801225A60FB68354A44
:102B68001A61BB68002B06D0FB685B6843F0020261
:102B7800FB685A6005E0FB685B6823F00202FB68AB
:102B88005A60796AF86831F034FD3B6AFF2B02D944
:102B98006FF0020343E0FB68DA683B6A1B041A43E0
:102BA800FB68DA60FB681A6AFB681A6220497A696E
:102BB80013469B001344DB000B4427331B78002B80
:102BC80023D03B68012B05D1FB685B6843F4803256
:102BD800FB685A603B68022B05D1FB685B6843F4CD
:102BE8004032FB685A603B68032B05D1FB685B6881
:102BF80043F4E022FB685A603B68042B05D1FB686C
:102C08005B6843F47022FB685A607B68002B05D030
:102C1800FB68DB6843F40052FB68DA60002318465F
:102C28001837BD4680BD00BF0060044000600450F6
:102C3800902B00300101010080B584B000AF7860AE
:102C48007B68554A934208D07B68544A934201D125
:102C5800002303E04FF0FF3300E00023FB607B68B4
:102C680000225A627B681A6A7B681A627B685B6812
:102C780023F001027B685A607B68DB6923F040120D
:102C88007B68DA614649FA6813469B001344DB0007
:102C98000B441B68002B2AD04149FA6813469B0055
:102CA8001344DB000B441B68BB60FA6813469B00A7
:102CB8001344DB003A4A1344184630F038FE3849CA
:102CC800FA6813469B001344DB000B441B685B6ADD
:102CD800002B0CD03249FA6813469B001344DB00E2
:102CE8000B441B685B6A6FF00E01B86898477B68F5
:102CF80000225A607B6800229A607B680022DA60B2
:102D08007B6800221A612649FA6813469B0013441F
:102D1800DB000B4414331B68002B16DB2049FA68D0
:102D280013469B001344DB000B4414331B681846FE
:102D3800FFF786FA1A49FA6813469B001344DB002A
:102D48000B4414336FF001021A601549FA681346F0
:102D58009B001344DB000B4418331B68002B16DB65
:102D68000F49FA6813469B001344DB000B441833E1
:102D78001B681846FFF764FA0949FA6813469B006E
:102D88001344DB000B4418336FF001021A60002370
:102D980018461037BD4680BD0060044000600450EE
:102DA800902B003080B586B000AF78603960304B2A
:102DB8001B685B083A689A4202D96FF0020353E035
:102DC8007868FFF741FE0346BB60BA683B68B2FB10
:102DD800F3F3BB60BB685B087B61BB685B083B6166
:102DE8000023FB60BB6803F00103002B10D07B6954
:102DF80001337B610CE07B69DA0F13445B107B6164
:102E08003B69DA0F13445B103B61FB680133FB60DD
:102E18007B690F2B02DDFB68072BECDDFB68082BB9
:102E280003D10F233B610F237B617B685B6923F030
:102E3800FF023B69DBB21A437B685A617B685B69B6
:102E480023F47F427B691B029BB21A437B685A6159
:102E58007B685B6923F47022FB681B0403F470230E
:102E68001A437B685A61002318461837BD4680BD4F
:102E78002002003080B485B000AF786039603B68CC
:102E8800012B02D03B68102B02DD6FF002034EE0ED
:102E98007B682A4A934208D07B68294A934201D129
:102EA800002303E04FF0FF3300E00023FB607B6862
:102EB8001B6B03F00103002B37D12249FA68134634
:102EC8009B001344DB000B440C331B68012B2CD1F3
:102ED8007B685B6823F001027B685A60396819488F
:102EE800FA6813469B001344DB0003440833196057
:102EF8003B680F2B0BDC7B68DB6823F470623B6854
:102F08001B0203F470631A437B68DA6005E07B6890
:102F1800DB6823F470627B68DA607B685B6843F087
:102F280001027B685A60002301E06FF0060318462F
:102F38001437BD465DF8047B704700BF006004404D
:102F480000600450902B003080B485B000AF7860EA
:102F580039603B68032B02DD6FF0020339E07B68C0
:102F68005B6803F00203002B02D16FF0060330E028
:102F78007B681B4A934208D07B681A4A934201D166
:102F8800002303E04FF0FF3300E00023FB60164905
:102F9800FA6813469B001344DB000B4427331B7865
:102FA800002B15D07B685B6801213A6801FA02F2B0
:102FB80012041A437B685A607B685A6801213B688F
:102FC80001FA03F31B0463F470231A407B685A6008
:102FD800002318461437BD465DF8047B704700BFD0
:102FE8000060044000600450902B003080B483B02F
:102FF80000AF78600B46FB70FB78032B3ED801A22C
:1030080052F823F01D300001373000015130000123
:103018006B3000017B68DB6823F001027B68DA60B3
:103028007B68DB6823F002027B68DA6027E07B6854
:10303800DB6843F001027B68DA607B68DB6823F0B9
:1030480002027B68DA601AE07B68DB6823F0010221
:103058007B68DA607B68DB6843F002027B68DA60D1
:103068000DE07B68DB6843F001027B68DA607B680F
:10307800DB6843F002027B68DA6000E000BF0023EF
:1030880018460C37BD465DF8047B704780B485B0A0
:1030980000AF786039607B68114A934208D07B683A
:1030A800104A934201D1002303E04FF0FF3300E0C0
:1030B8000023FB603B68002B14BF01230023D8B218
:1030C8000949FA6813469B001344DB000B44273375
:1030D80002461A7000BF1437BD465DF8047B70477E
:1030E8000060044000600450902B003080B586B02A
:1030F80000AF78600B46FB701346BB7000233B6142
:103108007B685D4A934208D07B685C4A934201D150
:10311800002303E04FF0FF3300E00023FB60FB686F
:10312800002B02DA6FF00203A2E0FB7883F00103C0
:10313800DBB2002B2BD00021786800F057FA3861F9
:103148003B69002B01DA3B6992E00021786831F095
:10315800F3FD38613B69002B01DA3B6988E07B6845
:103168001B6E03F04053002B04D003220021786823
:1031780031F02EFE7B681B6823F003027B681A601F
:103188007B681B6843F001027B681A606AE07B6811
:103198001B6E03F04053002B04D0032200217868F3
:1031A80031F016FE0023FB757B681B6E03F4005399
:1031B800002B03D0FB7D43F00103FB757B681B6E7E
:1031C80003F48053002B03D0FB7D43F02003FB75F1
:1031D8007B681B6E03F48033002B03D0FB7D43F028
:1031E8000203FB757B681B6E03F40033002B03D0CE
:1031F800FB7D43F00403FB75FB7D43F00803FB757F
:103208007B681B6F23F47F027B681A677B681A6FE1
:10321800FB7D1B041A437B681A677B681B6F23F4CA
:103228007F427B681A677B681A6F7B681A674FF45E
:103238008041786831F02FFD7B685B6823F00102DC
:103248007B685A607B685B6843F001027B685A6060
:103258007B689B6823F480627B689A607B689A68C5
:103268007B689A600649FB687A6841F83320002336
:1032780018461837BD4680BD0080014000800150C7
:10328800B82B003080B586B000AF78603960022373
:10329800FB732F23BB73294B1B685A083B685B08D9
:1032A8001A443B68B2FBF3F3BB60FB7BBA689A42F3
:1032B80003D3BB7BBA689A4202D96FF0020338E0A5
:1032C800BB685B087B61BB685B083B6105E07B69A9
:1032D800013B7B613B6901333B617B69102BF6D86D
:1032E800BB6803F00103002B02D03B6901333B614B
:1032F8007B681B6823F470627B681A607B681B68B4
:1033080023F470427B681A607B681A687B69013B0A
:103318001B021A437B681A607B681A6839697B69E3
:10332800CB1A1B031A437B681A60786800F008F808
:10333800034618461837BD4680BD00BF200200303E
:1033480080B485B000AF78607B681B681B0ADBB26D
:1033580003F00F03DBB20133FB737B681B681B0BA5
:10336800DBB203F00F03DAB2FB7B1344BB73074BEA
:103378001B685B08F97BBA7B0A44B3FBF2F3184677
:103388001437BD465DF8047B704700BF200200304B
:1033980080B58AB000AFF860B9601346FB71FB686E
:1033A8001B681B0ADBB203F00F0387F8233097F87A
:1033B8002330013387F82330294B1B685A0897F8C4
:1033C8002330B2FBF3F3FB61FB695B00254AA2FBE8
:1033D80003239B0DBB61BB685A08FB691A44BB6891
:1033E800B2FBF3F37B617B69012B02D86FF0020318
:1033F80031E0FB79002B03D07B69013B7B6202E063
:103408007B695B087B627A6ABB699A4201D2BB69B5
:103418007B627B6A013B7B62FB681B6823F0FF735E
:1034280023F48033FA681360FB681A687B6A1B040C
:103438001A43FB681A60FB681B68FA79002A02D0F5
:103448004FF0807200E000221A43FB681A60F868A7
:1034580000F00AF8034618462837BD4680BD00BF6D
:10346800200200306BCA5F6B80B485B000AF786013
:103478007B681B681B0ADBB203F00F03BB737B6816
:103488001B681B0C7B737B7B0133DAB2BB7B01337C
:10349800DBB212FB03F33B737B681B6803F080739A
:1034A800002B03D0BB7B0133FB7301E03B7BFB7339
:1034B800064B1B685B08F97B3A7B0A44B3FBF2F3C3
:1034C80018461437BD465DF8047B7047200200306B
:1034D80080B586B000AF786039607B681B681B0ACE
:1034E800DBB203F00F03FB747B681B681B0CBB7417
:1034F8001E4B1B685B08BA7C0132F97C013101FB69
:1035080002F2B3FBF2F3FB603B685A08FB681A440B
:103518003B68B2FBF3F3BB60BB685B087B617B690C
:10352800013B5B007B61BB6803F00103002B02D009
:103538007B6901337B617B690E2B01D90E237B618B
:103548007B681B6823F070427B681A607B681A6886
:103558007B691B071A437B681A60786800F008F8D3
:10356800034618461837BD4680BD00BF200200300C
:1035780080B487B000AF78607B681B681B0FDBB234
:1035880003F00F03FB747B681B681B0ADBB203F0B4
:103598000F03BB747B681B681B0C7B74FB7C5B088C
:1035A800DBB20133FB60FB687B61FB7C03F001034A
:1035B800DBB2002B02D07B6901337B610A4B1B68AD
:1035C8005A087969FB680B44797C0131B87C013071
:1035D80000FB01F101FB03F3B2FBF3F318461C37C0
:1035E800BD465DF8047B70472002003080B584B08A
:1035F80000AF78600B46FB70FB78072B02D96FF0A1
:1036080002031FE0FB78002B0ED07868FFF798FEC6
:10361800F8600E4B1B685A08FB68B2FBF3F3032BE8
:1036280002D86FF006030DE07B681B6823F0606228
:103638007B681A607B681A68FB785B061A437B68AC
:103648001A60002318461037BD4680BD200200309E
:1036580080B584B002AF7860786800F07FF81049D0
:10366800786831F005FB00230193002300930023C1
:1036780000220621786831F07EFB4FF47A71786871
:1036880031F01AFB0346002B02DA6FF0090303E05E
:10369800786800F027F8034618460837BD4680BD0D
:1036A8002027080080B582B000AF78607B68D3F827
:1036B80084200B4B13407A68C2F884307B68D3F8B7
:1036C800843043F002027B68C3F884204FF47A7197
:1036D800786831F011FB00BF0837BD4680BD00BFD8
:1036E800F8FE00FF80B485B000AF78607B68D3F83F
:1036F8009C20194B1340FB60FB6803F00403002B6C
:1037080002D06FF00A0320E0FB6803F00803002BE7
:1037180002D06FF00F0318E0FB6803F44023002B7E
:1037280002D06FF0060310E0FB6803F48013002B4F
:1037380002D06FF0090308E0FB6803F44033002B64
:1037480002D06FF00B0300E0002318461437BD4683
:103758005DF8047B704700BF1C061E0080B483B070
:1037680000AF78607B68044AC3F89C2000BF0C3720
:10377800BD465DF8047B70471C061E0080B483B00C
:1037880000AF4FF0A0431B684FF0A04243F0400346
:10379800136000BF4FF0A0431B6803F04003002BE9
:1037A800F8D14FF080737B607B681B683B60054BEA
:1037B8007B607B681B683B6000BF0C37BD465DF8CB
:1037C800047B70470020000180B483B000AF7860AC
:1037D80039607B68B3F1807F09D37B68B3F1887F58
:1037E80005D27B68C3F313023B681A6012E07B685A
:1037F800B3F1905F0BD37B680A4A934207D27B6888
:10380800C3F30D0303F580123B681A6002E06FF002
:10381800020300E0002318460C37BD465DF8047B20
:10382800704700BF0040001280B586B000AF7860D6
:1038380039607B6803F00303002B02D06FF00203AA
:1038480019E07B6823F00F037B6107F10C0319462D
:103858007869FFF7B9FF38613B69002B01DA3B69EA
:1038680009E0FB683A687968054857F074FA3861E6
:10387800FFF784FF3B6918461837BD4680BD00BF77
:103888000090025080B483B000AF78607B68B3F1D9
:10389800905F03D37B680D4A934202D36FF0020313
:1038A8000DE00B4B41F234221A64094B094A1A64A1
:1038B800074B094A1A64064B084A1A64002318463B
:1038C8000C37BD465DF8047B704700BF00800012CE
:1038D8000090025069BEBC5589C188761266308254
:1038E80080B483B000AF78607B68B3F1905F03D396
:1038F8007B68084A934202D36FF0020303E0064B49
:10390800064A1A64002318460C37BD465DF8047B46
:10391800704700BF0080001200900250EFBEADDE7D
:1039280080B500AF024831F0C5FB0346184680BD9C
:1039380000D0045080B582B000AF78607968044840
:1039480000F056F8034618460837BD4680BD00BF4C
:103958000074005080B500AF024831F045FC0346C2
:10396800184680BD0074005080B582B000AF06488C
:1039780031F021FC78602F202FF0E9FF7B68184692
:103988000837BD4680BD00BF0074005080B582B0C6
:1039980000AF78607968044831F078FC034618462F
:1039A8000837BD4680BD00BF0074005080B582B0A6
:1039B80000AF78607968044831F0B1FD03461846D5
:1039C8000837BD4680BD00BF0074005080B582B086
:1039D80000AF78600B46FB70FB781A46796803489D
:1039E80031F0ABFD00BF0837BD4680BD0078005000
:1039F80080B582B000AF786039607B6800221A60B9
:103A080000BF786831F0F0FB0346002BF9D17B68E2
:103A18001B6843F001027B681A60044A3B685360E4
:103A2800002318460837BD4680BD00BFC02B0030B4
:103A380080B500AF174852F08FF8174817F0CAFC46
:103A480057221649022032F05DF904221449012058
:103A580032F058F9104B0E221A710E4B4FF4FA72CD
:103A68001A800D4B002283F828200B4B02221A7370
:103A7800094B04229A73084B082283F82A20064B24
:103A8800022283F83520044B022283F83A2000BF33
:103A980080BD00BFD82B0030E82B0030F42B00305D
:103AA800262C003080B582B000AF786039607A6823
:103AB800396804482FF0C3FE012318460837BD466D
:103AC80080BD00BF2076050180B588B000AF40F208
:103AD8000D13FB83284BDB8C1C33BB831023BB806B
:103AE8000823BB7120233B810423BB728023BB8145
:103AF800214B9B7BBB73FB8B3B821F4B9B7BBB741C
:103B0800BB8BBB821C4B93F823201B4B93F82430B0
:103B18001344DAB2184B93F82A301344DAB2164B2E
:103B280093F82B301344DBB2BB750523FB7600F00A
:103B3800B3FB3A1DFB7E1146184600F0C3F9034655
:103B48003B833B8B184600F0D5FB3A1DFB7E1146A4
:103B5800184600F00DFA00F0B1FB00F0B7FC00F0D9
:103B6800DBFF064801F0A8F8012001F08DF800BF3E
:103B78002037BD4680BD00BFE82B0030AD3A0001BC
:103B880080B58AB000AF7860654A7B68136001F041
:103B9800EFFA01F0CDFB01F0A5FD102001F0AEFD1C
:103BA80000220021202032F0C4FA00220021212026
:103BB80032F0BFFA00220021222032F0BAFA0022A5
:103BC8000021232032F0B5FA00220021242032F00F
:103BD800B0FA00220021252032F0ABFA00220021A1
:103BE800262032F0A6FA00220021272032F0A1FA7E
:103BF80000220021282032F09CFA002200212920EE
:103C080032F097FA002200212A2032F092FA00229C
:103C180000212B2032F08DFA002200212C2032F0D6
:103C280088FA002200212D2032F083FA0022002198
:103C3800182032F07EFA002200212E2032F079FA84
:103C4800FFF7F6FEFFF740FF00F026FB354B3B6120
:103C580004233B7504237B750423BB75324BBB617E
:103C680000F066FB0346FB6100F076FB03463B620F
:103C780007F1100318464DF061F8786200F01EFB5A
:103C880000F00AFB786A00F035FB00F051FB0346B0
:103C9800FB6100F061FB03463B6207F11003184625
:103CA8004DF098F802467B6A934204D04FF49F7116
:103CB8001E4831F0D6FE00F001FB07F1080306228A
:103CC8001946002032F01EF807F10803184617F0CD
:103CD800C9FC002017F026FE154B1B6923F00303CF
:103CE800134A43F001031361114B1B69104A23F077
:103CF800280313614FF0A0439B684FF0A04223F4C0
:103D08000033936029F0CEFE01F0D2F829F0DEFEF0
:103D1800084B00221A7000BF2837BD4680BD00BF7F
:103D2800482C0030D82B0030E82B003028760501CD
:103D3800006C0050784B003080B584B000AF002391
:103D4800FB7300F0A9FA00F0D3FB0346FB73FB7B7F
:103D5800002B07D0204B1B78002B03D000F0AEFAC5
:103D6800012334E0FB7B002B2ED019F027FB034600
:103D7800002B29D001F058FBB860BB6840F6B73279
:103D8800934202D80023FB731EE0FEF73BF87860ED
:103D98007B68002B04D07B689B08184601F07AFCEE
:103DA8004FF4AF6001F004FC034683F00103DBB27B
:103DB800002B02D00023FB7306E001F07FFC29F002
:103DC80085FE054B01221A7000F078FAFB7B184635
:103DD8001037BD4680BD00BF784B003080B400AFBF
:103DE800084B094A1A60074B084A5A60054B084AAB
:103DF8009A60044B074ADA6000BFBD465DF8047B51
:103E0800704700BF4C2C00303313490515CD5B07B4
:103E1800E5559A15B53B121F80B483B000AF7860A2
:103E2800104B1A687B681B6853400E4A13600D4B91
:103E38005A687B681B6853400A4A5360094B9A6862
:103E48007B681B685340074A9360064BDA687B68B7
:103E58001B685340034AD36000BF0C37BD465DF86A
:103E6800047B70474C2C003080B483B000AF144BF7
:103E78005A68134B5B68DB0253407B60104B9B68AE
:103E88000F4A53600E4BDB680D4A93600C4B1B685E
:103E98000B4AD3600A4B1A68094B1B68DB0C5A4063
:103EA8007B68190A7B684B405340054A1360044BF2
:103EB8001B6818460C37BD465DF8047B704700BF89
:103EC8004C2C003080B489B000AF03463960FB71D8
:103ED800264B00221A60254B1B683B61FA79134672
:103EE8005B0013449B001A463B691344BB61FB7992
:103EF8005A1EFA71002B2DD03B681B88072B02D85D
:103F08000823FB6110E03B681B8803F007039BB2A2
:103F1800002B06D03B681B8823F007030833FB619E
:103F280002E03B681B88FB61FB69DB08FB603B68C0
:103F38009B78FB7507E0FB68DB00BA691344BB613B
:103F4800FB7D013BFB75FB7D002BF4D13B68043303
:103F58003B60CCE700BF054B1B68BA69D31A18460B
:103F68002437BD465DF8047B704700BF5C2C0030E9
:103F780090B587B000AF03463960FB710023BB736F
:103F880000F0D6F903465E4A13605D4B1B687B61FF
:103F9800FA7913465B0013449B001A467B69134465
:103FA8003B61584AFB791370554B1C6800F0D4F9F3
:103FB800034623F0070323443A699A4206D9BA21F3
:103FC800514831F04EFD0123BB737DE0FB795A1E49
:103FD800FA71002B75D03B681B88072B03D87B69C7
:103FE80008221A8014E03B681B8803F007039BB281
:103FF800002B09D03B681B8823F007039BB20833CA
:104008009AB27B691A8003E03B681A887B691A8038
:104018003B689A787B699A703B6804333B607B699C
:104028003A695A607B693A699A607B691B88DB0840
:10403800BB817B699B78FB731FE0314B1C6800F0E8
:104048008BF9034623F0070323443A699A4206D9B9
:10405800E8212D4831F005FD0123BB7310E0BB8931
:10406800DB003A691A443B691A60BB89DB003A698C
:1040780013443B61FB7B013BFB73FB7B012BDCD8CF
:10408800BB7B002B1FD11E4B1C6800F065F9034653
:1040980023F0070323443A699A4206D9FA211A48B9
:1040A80031F0DFFC0123BB730EE03B6900221A608C
:1040B800BB89DB003A6913443B617B690C337B6144
:1040C80072E700BF00E000BFBB7B83F00103DBB2F7
:1040D800002B06D00A4B1B683A69D31A1A460B4BB9
:1040E8001A60BB7B83F00103DBB2002B02D0074BC5
:1040F8001B6800E0002318461C37BD4690BD00BF72
:104108005C2C0030794B003068760501602C00305B
:1041180080B586B000AF0346FB80FB88002B04D136
:104128004FF490711E4831F09CFC1E4B1B687B615C
:104138001D4B1B78FB7425E07B691B88FA889A4223
:104148001AD800F0A9F87B699B68002B12D07B690C
:104158009B68FB60FB681A687B699A60134B1B6855
:104168000133124A1360FB6800225A6000F0A6F877
:10417800FB6810E000F0A2F8FB7C013BFB747B6954
:104188000C337B61FB7C002BD6D140F279110448BB
:1041980031F067FC002318461837BD4680BD00BFC4
:1041A800687605015C2C0030794B0030642C0030B7
:1041B80080B584B000AF78607B68BB60304B1B680B
:1041C8005B68BA689A4204D240F28F112D4831F0E8
:1041D80048FC2B4B1A682C4B1B681344BA689A424C
:1041E80004D34FF4C871274831F03BFC244B1A68BC
:1041F800264B1B7819460B465B000B449B000C3B77
:104208001344FB602FE0FB685B68BA689A4227D3C7
:1042180000F042F8BB685B681D4A934204D14FF432
:10422800CF71184831F01DFCBB68194A5A60FB6809
:104238009B687A689A4204D14FF4D171114831F0E1
:1042480010FCFB689A68BB681A60FB68BA689A60D9
:10425800104B1B68013B0F4A136000F02FF80CE06D
:10426800FB680C3BFB60064B1B68FA689A42CAD293
:104278004FF4DE71034831F0F4FB1037BD4680BDC2
:104288005C2C003068760501602C0030794B0030DA
:104298000DD0ABFA642C003080B500AF064B1B780C
:1042A800002B01D131F0E3FC034B1B780133DAB268
:1042B800014B1A7000BF80BD7A4B003080B500AF4B
:1042C8000A4B1B78002B03D13F21094831F0C9FB69
:1042D800064B1B78013BDAB2044B1A70034B1B7870
:1042E800002B01D131F0CCFC00BF80BD7A4B0030EF
:1042F800B076050180B582B000AF78607B68033383
:1043080023F003037B607968042015F011FC034651
:10431800054A1360054B1A687B681344034A136007
:1043280000BF0837BD4680BD682C00306C2C0030BB
:1043380080B500AF064B1B68002B05D150210548FE
:1043480031F08FFB002301E0014B1B68184680BD4C
:10435800682C0030F476050180B400AF044B1B686C
:10436800C3F580431846BD465DF8047B704700BF1F
:104378006C2C003080B400AF034B1B681846BD4658
:104388005DF8047B704700BF6C2C003080B586B0A8
:1043980000AFF8600B467A60FB727B68002B03D194
:1043A8007D21084831F05DFB7B68083B7B617B69B8
:1043B800FA7A1A717969F86800F006FA00BF1837B6
:1043C800BD4680BD3C77050180B582B000AF03468D
:1043D8000A46FB711346BB80FFF75EFFFB7903F0CB
:1043E8000F03104A203332F81310FB7903F00F0340
:1043F800BA880A4391B20B4A203322F81310094BAA
:1044080093F8683043F00403DAB2064B83F8682067
:10441800FFF754FF044831F0E9FB00BF0837BD46F9
:1044280080BD00BF742C00309C05003080B582B080
:1044380000AF03460A46FB711346BB71FFF72CFF1A
:10444800084B93F86820BB791343DAB2054B83F81D
:104458006820FFF733FF044831F0C8FB00BF083776
:10446800BD4680BD742C00309C05003080B483B0FC
:1044780000AF0346FB71034B18460C37BD465DF889
:10448800047B7047D42C003080B584B000AF7860CE
:104498000C4B93F869305A1CD1B20A4A82F8691059
:1044A800FB73FB7B0F2B03D9CA21074831F0D9FADC
:1044B800FB7B04497A6841F82320FB7B18461037B8
:1044C800BD4680BD742C00308477050180B500AFEF
:1044D8007C220021044851F0F9FD00F063FF0346F7
:1044E800024A136000BF80BD742C0030702C00306D
:1044F80080B400AF064B93F86830002B0CBF012343
:104508000023DBB21846BD465DF8047B704700BF48
:10451800742C003080B582B000AF0023FB711F4BB4
:1045280093F8793083F00103DBB2002B02D000232B
:10453800FB712DE000233B601FE0184A3B681A33EB
:104548009B0013445B68002B14D0FB79002B09D126
:10455800124A3B681A339B0013445B68984703462A
:10456800002B01D0012300E00023FB71FB7903F04D
:104578000103FB713B6801333B60084B93F87830CB
:104588001A463B689342D8D3044AFB7982F87930BB
:10459800FB7918460837BD4680BD00BF742C003033
:1045A80080B586B000AF454B3B61FFF775FE3B69B0
:1045B80093F86830FB733B69002283F86820FFF7A3
:1045C8007DFEFB7B03F00103002B1ED012E07B78FD
:1045D8000F2B04D940F23511394831F042FA7B7873
:1045E8001A463B6953F82230B96800209847B868E2
:1045F80031F06FFA3B6960337A1C1146184631F086
:104608008DFAB860BB68002BE1D1FB7B03F0020395
:10461800002B1BD013E07B681B7B0F2B04D940F2C7
:104628004111274831F01DFA7B681B7B1A463B690C
:1046380053F822307A680432114600209847002047
:1046480000F0F6FA78607B68002BE4D1FB7B03F07E
:104658000403002B2DD00023FB7527E0FA7D3B696E
:10466800203233F81230002B1DD0FA7D3B6953F805
:104678002230002B17D0FFF70FFEFA7D3B6920325E
:1046880033F812307B80FA7D3B692032002123F811
:104698001210FFF713FEFA7D3B6953F822307A882F
:1046A800002110469847FB7D0133FB75FB7D0F2BDE
:1046B800D4D900BF1837BD4680BD00BF742C003068
:1046C800847705012DE9B04F84B000AF31F0A5FA29
:1046D800FFF720FF0346002B42D1FFF7DDFDFFF770
:1046E80007FF0346FB73FFF7E9FDFB7B002BEDD0CB
:1046F800FB1D184600F07EFAB860FB7983F00103D1
:10470800DBB2002B07D04FF0FF324FF0FF331548D4
:1047180031F05CFADAE7BA6813469B0013445B0091
:104728001A4600239046994642464B464FF00000F1
:104738004FF00001990041EA9271900002460B4641
:1047480012EB080443EB090514EB040A45EB050BCF
:1047580054465D4622462B46024831F037FAB5E703
:1047680000BFB3E79C05003080B584B000AF00F00F
:1047780019FEF860124B1B681946F86800F040FEF5
:10478800B860BB680A2B16D9BB680E4AA2FB032384
:10479800DB087B607A6813469B0013445B0018466D
:1047A80031F066FB0246064B1B681344044A13604B
:1047B800786800F0F1F900BF1037BD4680BD00BF32
:1047C800702C0030CDCCCCCC80B582B000AF7860F6
:1047D80039607B68002B03D13721134831F041F948
:1047E8003B68002B03D138210F4831F03AF93B6878
:1047F80000221A60FFF750FD7B681B68002B06D16A
:104808007B683A681A607B683A685A6006E07B6899
:104818005B683A681A607B683A685A60FFF74EFD31
:1048280000BF0837BD4680BDC877050180B584B094
:1048380000AF78607B68002B03D160210E4831F00F
:1048480010F9FFF729FD7B681B68FB60FB68002BEC
:104858000AD0FB681A687B681A607B681B68002BA3
:1048680002D17B6800225A60FFF728FDFB681846D2
:104878001037BD4680BD00BFC877050180B582B03E
:1048880000AF786039607B68002B03D1862110481F
:1048980031F0E7F83B68002B03D187210C4831F051
:1048A800E0F8FFF7F9FC7B681A683B681A607B68D8
:1048B8001B68002B02D17B683A685A607B683A68AB
:1048C8001A60FFF7FBFC00BF0837BD4680BD00BF7C
:1048D800C877050180B584B000AFF860B9607A6028
:1048E800FB68002B03D1AB21174831F0BAF8BB683D
:1048F800002B03D1AC21144831F0B3F8FFF7CCFCFE
:10490800FB681B68002B04D0FB685B687A689A42D6
:1049180004D1B968F868FFF757FF0EE07B68002BF1
:1049280004D1B968F868FFF7A9FF06E07B681A6840
:10493800BB681A607B68BA681A60FFF7BFFC00BFE3
:104948001037BD4680BD00BFC877050180B584B06B
:1049580000AFF860B9607A60FB68002B03D1D721FB
:10496800194831F07EF8FB681B68002B03D1D82169
:10497800154831F076F8BB68002B03D1D9211248CD
:1049880031F06FF8FFF788FCFB681B68BA689A4239
:1049980004D1BB681A68FB681A6006E07B68002BC4
:1049A80003D0BB681A687B681A60FB685B68BA68E2
:1049B8009A4202D1FB687A685A60FFF77FFC00BF11
:1049C8001037BD4680BD00BFC877050180B584B0EB
:1049D80000AF786000237B817B68002B04D140F214
:1049E80005110C4831F03DF8FFF756FC7B681B6851
:1049F800FB6005E07B8901337B81FB681B68FB60FA
:104A0800FB68002BF6D1FFF759FC7B891846103755
:104A1800BD4680BDC877050180B584B000AF786019
:104A28007B68002B04D14FF49471094831F019F8D0
:104A3800FFF732FC7B681B68002B0CBF01230023A7
:104A4800FB73FFF73BFCFB7B18461037BD4680BD68
:104A5800C877050180B584B000AF78600023BB60DB
:104A6800104B1B68FB6008E0FA687B689A4208D024
:104A7800FB68BB60FB681B68FB60FB68002BF3D11D
:104A880000E000BFFB68002B07D0BA6879680548CA
:104A9800FFF75CFF7B6800225A7300BF1037BD46E2
:104AA80080BD00BFF02C003080B584B000AF7860C6
:104AB80039600023BB6031F0A4F87B685B7B002B76
:104AC80002D07868FFF7C6FF7B6801225A737B68BB
:104AD8003A689A600F4B1B68FB600AE07B689A682B
:104AE800FB689B689A4208D3FB68BB60FB681B683D
:104AF800FB60FB68002BF1D100E000BFBA68796861
:104B08000448FFF7E7FE31F082F800BF1037BD46D2
:104B180080BD00BFF02C003080B400AF054B0022F0
:104B28001A60044B00225A6000BFBD465DF8047B42
:104B3800704700BFF02C003080B584B000AF7860BB
:104B480039603B684FF47A7202FB03F30933064A73
:104B5800A2FB0323DB08FB60F9687868FFF7A4FF72
:104B680000BF1037BD4680BDCDCCCCCC80B584B05D
:104B780000AF786039603B680933064AA2FB03231B
:104B8800DB08FB60F9687868FFF78EFF00BF103715
:104B9800BD4680BDCDCCCCCC80B584B000AF7860AC
:104BA80031F02FF8124B1B68FB6017E0FB689B681D
:104BB8007A689A4206D2FB689A687B68D21AFB68C0
:104BC8009A6008E0FB6800229A60FB681B7B022160
:104BD8001846FFF72BFCFB681B68FB60FB68002B83
:104BE800E4D131F014F800BF1037BD4680BD00BFD6
:104BF800F02C003080B485B000AF78600B4B1B6898
:104C0800002B05D17B6800221A700023FB6006E0A8
:104C18007B6801221A70054B1B689B68FB60FB6868
:104C280018461437BD465DF8047B7047F02C0030F9
:104C380080B586B000AF0346FB7100233B6130F0BE
:104C4800E0FF104B1B68FB60FB68002B10D0FB6873
:104C58009B68002B0CD13A69F9680A48FFF776FE81
:104C6800FB6800225A7330F0D2FFFB687B6103E0D7
:104C780030F0CDFF00237B617B6918461837BD46AD
:104C880080BD00BFF02C003080B582B000AF034675
:104C9800FB71074B1B68002B03D1AE21054830F090
:104CA800E0FE034AFB79137200BF0837BD4680BD9A
:104CB800F82C00301078050180B483B000AF78601C
:104CC800044A7B68136000BF0C37BD465DF8047B5F
:104CD800704700BFF82C003080B400AFBFF34F8F8F
:104CE80000BF064BDB6803F4E0620449044B13433E
:104CF800CB60BFF34F8F00BF00BFFDE700ED00E0C2
:104D08000400FA0580B400AF034B1B781846BD4673
:104D18005DF8047B704700BF082D003080B483B075
:104D280000AF0346FB71FA79034B1A7000BF0C37CA
:104D3800BD465DF8047B70477B4B003080B584B07E
:104D480000AF0346FB71FFF7A7FA084B1B68FB602F
:104D5800FB79002B02D0054B00221A60FFF7AEFA50
:104D6800FB6818461037BD4680BD00BF042D0030D3
:104D780080B582B000AF0346FB71064AFB79137019
:104D8800FB79022B01D0FFF7A7FF00BF0837BD460C
:104D980080BD00BF082D003080B400AF044B41F245
:104DA80034221A6400BFBD465DF8047B704700BF1B
:104DB8000090025080B500AFFFF7EEFF054B064AA2
:104DC8001A64044B054A1A64024B054A1A6400BF68
:104DD80080BD00BF0090025069BEBC5589C188766D
:104DE8001266308280B582B000AF78603960FFF714
:104DF800E1FF0B4B1B68DBB203F01F03DAB27B68E1
:104E08001A70084B1B68DBB203F01F03DAB23B6869
:104E18001A70FFF7C1FF00BF0837BD4680BD00BF4D
:104E28009C010012AC01001280B584B000AF78601C
:104E38000B46FB70FFF7BEFF8023FB73FA78FB7B02
:104E4800934228BF1346BB73BB7B1A460449786854
:104E580051F02FF9FFF7A0FF00BF1037BD4680BD06
:104E68000004001280B58AB000AFF860B9607A60BB
:104E78000E48FEF75FFD04237B61BB68BB617B685E
:104E8800FB61002387F82030002387F821300021B8
:104E9800F868FEF79BFD07F114031846FEF786FD38
:104EA800FEF762FD00BF2837BD4680BD0080024086
:104EB80080B582B000AF0A4B1B6903F00303012BD6
:104EC8000AD164210620FDF707F803469B087B609A
:104ED800786800F0DFFB00E000BF0837BD4680BD02
:104EE800006C005080B485B000AF78607B68FB60D0
:104EF800794B1B88DAB2FB681A70FB6800225A707B
:104F0800754B1B88DAB2FB689A70744B1A88FB6879
:104F18009A80FB6800221A81FB6802225A81FB688A
:104F280000221A73FB680022DA81FB6800221A82C9
:104F3800FB6800229A74FB680422DA74674B1A88AB
:104F4800FB689A82FB6802229A75FB680422DA756C
:104F5800FB6804221A76FB684FF480725A83FB6858
:104F680000221A77FB6800225A77FB6800229A779A
:104F7800FB680022DA77FB6800221A84FB680022AB
:104F88005A84FB68002283F82420FB680022DA8414
:104F9800FB68002283F82820FB68002283F8292078
:104FA800FB6800225A85FB68002283F82C20FB68E6
:104FB800002283F82D20FB68002283F82E20FB684E
:104FC8000A221A86FB68002283F83220FB68002236
:104FD80083F83320FB68002283F83420FB68002222
:104FE80083F83520FB68DD2283F83620FB68C92268
:104FF80083F83720FB68322283F83820FB680022C8
:1050080083F83920FB68002283F83A20FB68C42221
:1050180083F83C20FB68BA2283F83B20FB6809220E
:1050280083F83D20FB68002283F83E20FB680022BD
:1050380083F83F20FB68002283F84020FB680022A9
:1050480083F84120FB68002283F84220FB68002295
:1050580083F84320FB68002283F84420FB68002281
:1050680083F84520FB68002283F84620FB6800226D
:1050780083F84720FB68002283F84820FB68002259
:1050880083F84920FB68002283F84A20FB68002245
:1050980083F84B20FB68002283F84C20FB68002231
:1050A80083F84D20FB68002283F84E20FB6800221D
:1050B80083F84F20FB68002283F85020FB68002209
:1050C80083F85120FB68002283F8522000BF143770
:1050D800BD465DF8047B704784A0050186A00501E4
:1050E80080B58AB000AF78600023BB6107F11C036C
:1050F80000221A605A601A720023BB6007F10C0381
:1051080000221A605A609A6007F1080207F1180332
:1051180011461846FCF7EAFB0346002B04D040F280
:105128001F11124830F09DFC7B68053300221A706D
:105138007B68043304221A707B680333B7221A7021
:10514800BA7FFB7F5340D9B297F820207B6802339F
:105158004A40D2B21A707B6801337A7A1A703A7A66
:105168007B681A7000BF2837BD4680BD5878050196
:1051780080B58EB000AF304B1B687B622F4B1B682D
:10518800BB622F4B1B68FB622E4B1B683B632E4B8D
:105198001B687B612D4B1B68BB612D4B1B68FB613A
:1051A8002C4B1B683B622FF055FF00237B632CE0E0
:1051B8003B1D102118462FF05FFF7A6A7B68534029
:1051C8007B62BA6ABB685340BB62FA6AFB685340A9
:1051D800FB623A6B3B6953403B633B1D1021184609
:1051E8002FF04AFF7A697B6853407B61BA69BB68D4
:1051F8005340BB61FA69FB685340FB613A6A3B69FB
:1052080053403B627B6B01337B637B6B0F2BCFDDA2
:105218002FF027FF07F11402391D07F12403184660
:1052280030F09CFDFEF7DAFD3B1D1846FEF7F4FD55
:1052380000BF3837BD4680BD708205017482050104
:10524800788205017C82050180820501848205013E
:10525800888205018C82050180B483B000AF0346C3
:10526800FB7197F90730002B0BDBFB7903F01F026A
:10527800074997F907305B09012000FA02F241F863
:10528800232000BF0C37BD465DF8047B704700BF84
:1052980000E100E080B483B000AF0346FB7197F9EA
:1052A8000730002B0CDBFB7903F01F02074997F945
:1052B80007305B09012000FA02F2603341F823202D
:1052C80000BF0C37BD465DF8047B704700E100E085
:1052D80080B582B000AF102000F010FA12482EF00E
:1052E8009FFC1820FFF7D6FF104B5B69002B02D0FC
:1052F8000E4B5B6998470D4BDB69002B02D00B4BBB
:10530800DB699847094B5B68002B06D0074B5B6845
:105318007B6000F0AFF97B6898470348FCF722FEF2
:1053280000BF0837BD4680BD006400500C2D00301A
:1053380080B582B000AF05233B704FF0FF337B6030
:1053480016482EF03DFC002114482EF01FFC3B4669
:10535800194612482EF03FFC2EF009FC1820FFF7E2
:1053680099FF1820FFF778FF0C482EF01EFC0C4B15
:1053780000225A610A4B00229A61094B0022DA6125
:10538800074B00225A60064B01221A70044B47F261
:1053980035729A6000BF0837BD4680BD0064005072
:1053A8000C2D00302DE9B04F82B000AF12482EF01E
:1053B8002BFC78607B6800229A4693460F4B9B68CB
:1053C80000229846914608FB0BF20AFB09F31344A6
:1053D800AAFB08452B441D464FF47A724FF0000390
:1053E80020462946FAF7E4FE02460B4613461846BD
:1053F8000837BD46BDE8B08F006400500C2D003062
:1054080080B483B000AF786039607A683B68D31A9B
:10541800044AA2FB03239B0918460C37BD465DF8D6
:10542800047B7047D34D62102DE9F04F83B000AF75
:105438001D4B1B78022B30D11C482EF0D9FB064699
:105448001A482EF0E1FB0346F31A7B607B680022C2
:105458009A469346144B9B6800229846914608FB4F
:105468000BF20AFB09F31344AAFB08452B441D461B
:105478004FF47A724FF0000320462946FAF798FE57
:1054880002460B4613463B603B686FF0004293426E
:1054980001D23B6802E0012300E0002318460C37E4
:1054A800BD46BDE8F08F00BF0C2D003000640050F1
:1054B8002DE9B04F88B000AFF860B960FEF7ECFE98
:1054C80038482EF0A1FBB86128F030FB0246FB6893
:1054D8009B1AFB61FB69002B02DA334B1B68FB61EB
:1054E800314B1B68FA699A4202D22F4B1B68FB6149
:1054F800FB6900229846914642464B464FF0000011
:105508004FF00001590141EAD261500102460B46B1
:10551800B2EB080463EB09054FF000024FF00003FB
:10552800AB0043EA9473A20014461D4614EB080A24
:1055380045EB090B4FF000024FF000034FEACB0395
:1055480043EA5A734FEACA0292469B465046594666
:10555800164B9B6800223B607A60D7E90023FAF774
:1055680027FE02460B46BB6913447B610F4ABB68A2
:1055780053600E4B02221A7079690A482EF05BFBC1
:105588001820FFF769FE094B9B69002B02D0074BD7
:105598009B699847FEF792FE00BF2037BD46BDE8DD
:1055A800B08F00BF00640050908205010C2D0030C0
:1055B8002DE9B04F86B000AFF8602C482EF018FBEC
:1055C80078612A482EF020FB3861FB680022984653
:1055D800914642464B464FF000004FF000015901FA
:1055E80041EAD261500102460B46B2EB080463EB74
:1055F80009054FF000024FF00003AB0043EA947333
:10560800A20014461D4614EB080A45EB090B4FF09F
:1056180000024FF000034FEACB0343EA5A734FEA04
:10562800CA0292469B4650465946114B9B68002237
:105638003B607A60D7E90023FAF7BAFD02460B46C9
:105648007B699B1A7B617A693B69D31A6FF00042C8
:10565800934205D2796905482EF0EDFA012300E05E
:10566800002318461837BD46BDE8B08F00640050C7
:105678000C2D003080B500AFFEF70EFE044B002263
:105688005A60034B01221A70FEF718FE00BF80BD56
:105698000C2D003080B483B000AF7860054A7B6879
:1056A800B2FBF3F3044A936000BF0C37BD465DF8C4
:1056B800047B704700CA9A3B0C2D003080B500AFC0
:1056C80006482EF0C5FA28F031FA0346044A136159
:1056D800024B1B68024AD36000BF80BD00640050C3
:1056E8000C2D003080B500AF30F0DFFB024B0122FB
:1056F8001A7000BF80BD00BF2C2D003080B582B06D
:1057080000AF0346FB710D4B1B78002B12D0FB79C1
:10571800102B02D0112B04D007E0012030F0D7FB6A
:1057280009E0002030F0D3FB05E0FB79184630F0A3
:10573800CEFB00E000BF0837BD4680BD2C2D0030F1
:1057480030BFFFF7FDBF00BF80B400AF034A044B72
:1057580013441846BD465DF8047B704700000000FE
:105768000800000080B582B000AF7860094B1A4687
:105778000949786850F09DFC064A7B6813447B60B1
:10578800064B1A460021786850F0A0FC00BF083785
:10579800BD4680BD000000009D6C050108000000AA
:1057A80080B400AF084B1A6A074B9B689A4205D031
:1057B800064B5B68054A43F08053536000BFBD4603
:1057C8005DF8047B704700BFB80E003000ED00E0C4
:1057D80080B588B000AFF860B9607A601023FB61CB
:1057E8006FF01503BB6100BF344B9B6A03F01003D5
:1057F800002B02D01123FB6100BF304B9B6A03F0E2
:105808000803002B02D01223FB6100BF2B4B9B6ABD
:1058180003F00203002B17D01323FB6100BF274BB3
:105828005B6B7B61254B9B6A03F08003002B0BD0DD
:105838007B69BB6100BFBB68002B05D01F4B9B6A0F
:105848001E4A23F0800393621C4B9B6A03F00103FA
:10585800002B02D01423FB6100BF184B9B6A03F096
:105868002003002B02D01523FB6100BF134B9B6A5A
:1058780003F01003002B01D1104B9B6A0F4B9B6A5E
:1058880003F02003002B05D00C4B5B6A0B4A23F472
:1058980000535362094B9B6A084A43F0FF03936223
:1058A8000121F86830F0B1FB03461A467B681A708C
:1058B800FB6918462037BD4680BD00BF00ED00E0FB
:1058C80080B586B000AFF860B9607A6016237B6156
:1058D80000BF2E4B9B6A03F48053002B02D0172382
:1058E8007B6100BF294B9B6A03F40063002B02D045
:1058F80018237B6100BF254B9B6A03F40073002BC0
:1059080015D019237B6100BF204B9B6B3B611F4B5C
:105918009B6A03F40043002B09D000BFBB68002B2F
:1059280005D01A4B9B6A194A23F400439362174B1C
:105938009B6A03F48063002B02D01A237B6100BFAB
:10594800124B9B6A03F48073002B02D01B237B61EC
:1059580008E00E4B9B6A03F40053002B02D01C2373
:105968007B6100BF094B9B6A084A43F47F439362FB
:105978000121F86830F049FB03461A467B681A7023
:105988007B6918461837BD4680BD00BF00ED00E0B2
:1059980080B485B000AF78601D23FB6000BF274B43
:1059A8009B6A03F00073002B02D01E23FB6000BF2C
:1059B800224B9B6A03F08073002B02D01F23FB60ED
:1059C80000BF1E4B9B6A03F48013002B02D02023D8
:1059D800FB6000BF194B9B6A03F40023002B02D025
:1059E8002123FB6000BF154B9B6A03F48023002B27
:1059F80002D02223FB6000BF104B9B6A03F40033E4
:105A0800002B02D02323FB6000BF0C4B9B6A03F4DE
:105A18008033002B02D02423FB6000BF074B9B6A16
:105A2800064A6FEA03436FEA13439362FB6818461A
:105A38001437BD465DF8047B704700BF00ED00E0F9
:105A480080B485B000AF78602523FB6000BF2A4B87
:105A58009B69BB60284B5B6903F04003002B264B16
:105A68005B6903F00103002B02D02623FB6035E0BD
:105A7800214B5B6903F00203002B02D02723FB6054
:105A88002CE01D4B5B6903F00403002B02D0282394
:105A9800FB6023E0184B5B6903F00803002B02D07E
:105AA8002923FB601AE0144B5B6903F01003002BF9
:105AB80002D02A23FB6011E00F4B5B6903F020033F
:105AC800002B02D02B23FB6008E00B4B5B6903F033
